:020000040800F2
:10000000F00A0020CD010008D72D00083524000893
:10001000D52D0008510400088932000800000000B6
:10002000000000000000000000000000C92E0008D1
:100030007904000800000000D92D00089D30000858
:10004000E7010008E7010008E7010008E7010008F0
:10005000E7010008E7010008E7010008E7010008E0
:10006000E7010008E7010008E7010008E7010008D0
:10007000E7010008E7010008E7010008E7010008C0
:10008000E7010008E7010008E7010008E7010008B0
:100090007D320008E7010008E70100087D04000840
:1000A000E7010008E7010008E7010008E701000890
:1000B000E7010008E7010008E7010008E701000880
:1000C000E7010008E7010008E7010008E701000870
:1000D000E7010008E7010008E7010008E701000860
:1000E000E7010008E7010008E7010008E701000850
:1000F000E7010008E7010008E7010008E701000840
:10010000E7010008E7010008E7010008E70100082F
:10011000E7010008E701000801310008E7010008D5
:10012000E7010008E7010008E7010008E70100080F
:1001300000F002F800F03AF80AA090E8000C8244BF
:100140008344AAF10107DA4501D100F02FF8AFF29C
:10015000090EBAE80F0013F0010F18BFFB1A43F0A5
:1001600001031847D4370000F4370000103A24BFC9
:1001700078C878C1FAD8520724BF30C830C144BF0C
:1001800004680C607047000000230024002500264E
:10019000103A28BF78C1FBD8520728BF30C148BFEA
:1001A0000B6070471FB51FBD10B510BD00F08EF875
:1001B0001146FFF7F7FF03F079F800F0ACF803B44D
:1001C000FFF7F2FF03BC00F0AFF8000009488047DA
:1001D00009480047FEE7FEE7FEE7FEE7FEE7FEE729
:1001E000FEE7FEE7FEE7FEE704480549054A064B41
:1001F00070470000FF30000831010008F0040020C3
:10020000F00A0020F0060020F006002010B5203A89
:10021000C0F00B80B1E81850203AA0E81850B1E8BF
:100220001850A0E81850BFF4F5AF5FEA027C24BF75
:10023000B1E81850A0E8185044BF18C918C0BDE86C
:1002400010405FEA827C24BF51F8043B40F8043B35
:1002500008BF7047D20728BF31F8023B48BF11F8EA
:10026000012B28BF20F8023B48BF00F8012B704744
:100270004FF0000200B5134694469646203922BF3F
:10028000A0E80C50A0E80C50B1F12001BFF4F7AF8A
:10029000090728BFA0E80C5048BF0CC05DF804EB6C
:1002A000890028BF40F8042B08BF704748BF20F8DA
:1002B000022B11F0804F18BF00F8012B70477047D8
:1002C0007047704700487047900400207546FFF75C
:1002D000F9FFAE4605006946534620F00700854603
:1002E00018B020B5FFF780FFBDE820404FF00006B2
:1002F0004FF000074FF000084FF0000B21F007010E
:10030000AC46ACE8C009ACE8C009ACE8C009ACE850
:10031000C0098D46704710B50446AFF300802046F3
:10032000BDE81040FFF74BBF01491820ABBEFEE708
:10033000260002007047000070B50024074D2646D5
:100340003C2155F8240001F005FF55F82400006811
:100350004662641CE4B2062CF2D370BD0C0000208F
:100360002DE9F05FDFF8D0A000243348183850F8AA
:1003700024000168486A00224A6203F059F92F4EAE
:10038000314603F06DF92E4F394603F073F82D4DC9
:1003900055F8241003F00CF845F8240055F8241003
:1003A000A5F1180050F8240003F026FA394603F0AE
:1003B00057F9314603F05EF803F01EF9064603F0E4
:1003C00037F904EB84090AEB89058346E96802F0F2
:1003D000EFFF8046E8602869301A03F029F9A96820
:1003E00003F03EF907464146686803F039F9804654
:1003F00058465AF8291003F033F9414602F0D8FF65
:10040000394602F0D5FF10492E61884202DC0F49BF
:10041000884200D9084603F0EFF802B206481E38B9
:10042000015D801F005D02F091FF641CE4B2062CA8
:100430009BD3BDE8F09F0000240000200000B443DF
:1004400000F33847DC00002000004844000048C4A6
:10045000FEE700000648016841F080710160054830
:1004600000214160016841F0010101607047000016
:10047000FCED00E0001000E07047000010B54020E7
:1004800000F0EEFB05480168490605D540210160F2
:10049000BDE8104002F0E8B910BD000014040140AE
:1004A00072B6FEE790F82020012A07D0022A05D074
:1004B000416A41F48021416201207047006842692D
:1004C0000A43426100207047F0B590F8205004685C
:1004D000A468012D05D0022D03D0416A41F480218A
:1004E00057E014F0406F01D1E5004FD5C4F301642B
:1004F0000125A5401D608D684FF4C0739DB1CE6885
:1005000035434E6845EAC605066803EB0417F55106
:100510004FF4C275076805EB04150E697E51097D1D
:10052000012905D009E00E88CD6845EA4655EBE77C
:1005300001684E5946F480764E511179D579567935
:1005400041EA056195792D0445EA062529434FF4D2
:10055000C676056806EB0416A9511178D57841EAEC
:100560000561957852782D0445EA022211434FF433
:10057000C475026805EB04155151006803EB0411C2
:10058000425842F0010242500020F0BD416A41F45D
:10059000001141620120F0BD10B590F820300268D2
:1005A000012B07D0022B05D0416A41F48021416222
:1005B000012010BDD2F8000240F00100C2F8000294
:1005C000087D00F01F0301209840D2F81C328343BD
:1005D000C2F81C32CB69B3B9D2F80C328343C2F8EB
:1005E0000C328C894B6864F31F434C6902EBC404E2
:1005F000C4F840320C890B6864F31F434C6902EB6A
:10060000C404C4F84432CB69012B16D1D2F80C32A1
:100610000343C2F80C320C884B6864F31F434C69E7
:1006200002EBC404C4F840320C89CB6864F31F4366
:100630004C6902EBC404C4F844328B69002BD2F835
:1006400004320FD053EA0003C2F804320B69002BC6
:10065000D2F8143208D00343C2F81432096A0129CF
:1006600004D008E08343EFE78343F5E7D2F81C1298
:100670000143C2F81C12D2F8000220F00100C2F8B7
:100680000002002010BD10B5044600F00BF8400732
:1006900007D5204600F098FA2046BDE8104000F04B
:1006A00067BA10BD406A704770B590F82040012CC1
:1006B00005D0022C03D0416A41F4802128E004686F
:1006C00009B32469A40720D04FF4D874056804EB5B
:1006D00001142D5915F00405956005682D591AD09F
:1006E000ED08556005682C5904F00204D4604FF4FD
:1006F000DA74056804EB01142E5906F00F06082E73
:100700000CD308250DE0E468DCE7416A41F40011F0
:100710004162012070BD6D0D1560E3E72D5905F0B4
:100720000F05156105682D59C5F307259561056805
:100730002C59240C54614FF4DC72046802EB011252
:10074000A4581C700468A458240A5C700468A45857
:10075000240C9C700468A258120EDA704FF4DE72FA
:10076000046802EB0112A4581C710468A458240AFE
:100770005C710468A458240C9C710468A258120E81
:10078000DA71006829B1016941F02001016100209E
:1007900070BDC16841F02001C160F8E72DE9F05F4C
:1007A0000546006800244669D0F804908768D0F8B0
:1007B0000CB0D0F810A0D0F81880F10748D0F90795
:1007C00014D001218160B80703D5284600F02DFA26
:1007D0000CE0780702D54FF4006407E0380702D533
:1007E0004FF4805402E0284600F01EFAF80516D5B2
:1007F00029684FF480708860B80503D5284600F05A
:1008000016FA0CE0780502D544F4005407E03805E8
:1008100002D544F4804402E0284600F007FAF803C9
:1008200016D529684FF480308860B80303D5284670
:1008300000F0FFF90CE0780302D544F4004407E02F
:10084000380302D544F4803402E0284600F0F0F981
:10085000300707D55FEACB6004D52968102044F43F
:100860000074C86070074FF0080707D55FEA0B7087
:1008700004D52868C760284600F064F9B00706D59B
:100880002868C068800702D0284600F05DF970062D
:1008900007D55FEACA6004D52968102044F4806453
:1008A0000861B00607D55FEA0A7004D528680761B9
:1008B000284600F059F9F00606D528680069800737
:1008C00002D0284600F051F9B00308D55FEAC960AC
:1008D00005D5296810204860284600F047F9F00344
:1008E00007D55FEA097004D528684760284600F0FC
:1008F000A1F9300446D55FEA497040D5F00504D52A
:100900005FEAC87001D044F00104B00504D55FEA85
:10091000887001D544F00204700504D55FEA487080
:1009200001D544F00404300529D518F0700F26D005
:1009300008F07000402815D006DC102809D02028C7
:100940000AD0302816D10AE050280ED0602811D1E4
:100950000EE044F008040DE044F010040AE044F016
:10096000200407E044F0400404E044F0800401E087
:1009700044F480742868816921F0700181612968DC
:1009800004204860002C05D0686A2043686228462D
:10099000FFF779FEBDE8F09F70B5040003D094F82E
:1009A000200010B104E0012070BD204600F082F864
:1009B0002068016841F00101016000F067FA054616
:1009C000052604E000F062FA401B0A2811D82068CE
:1009D0004068C007F6D02068016821F0020101607C
:1009E00000F054FA05460BE000F050FA401B0A28CC
:1009F00006D9606A40F40030606284F82060D2E773
:100A0000206840688007EFD4207E012820680168B4
:100A10003DD021F080010160607E012820680168DE
:100A200038D021F040010160A07E012820680168D3
:100A300033D021F020010160E07E012820680168A8
:100A40002ED041F010010160207F0128206801684C
:100A500029D021F008010160607F01282068016829
:100A600024D021F004010160D4E902010843D4E953
:100A70000412114308436168491E08432168C86194
:100A800000206062012084F82000002070BD41F049
:100A90008001C0E741F04001C5E741F02001CAE70D
:100AA00021F01001CFE741F00801D4E741F0040143
:100AB000D9E7000010B586B00021009101910291A4
:100AC000039100681B49884231D11B48C16941F03C
:100AD0000071C161C16901F000710491816941F047
:100AE000200181618069154C00F0200004900120F4
:100AF00000906946204600F0BFF8022103200091D3
:100B0000019103906946204600F0B6F80C48416810
:100B100021F4C04141F0E06141F4C0414160002254
:100B20001146142000F0FAFC142000F0E9FC06B095
:100B300010BD00000064004000100240001401409D
:100B4000000001407047000010B5054B054A002128
:100B5000FFF7AAFD024901200839087010BD000006
:100B6000A40000200C01002070477047704700006F
:100B700070B5044690F82000012804D0606A40F463
:100B80000020606218E0022084F8200020680168DC
:100B900021F00101016000F079F905460EE000BF87
:100BA00000F074F9401B0A2808D9606A40F400304C
:100BB0006062052084F82000012070BD2068406834
:100BC000C007EDD1606270BD70B5044690F820009A
:100BD000022804D0606A40F48010606214E020684B
:100BE000016841F00101016000F050F905460DE097
:100BF00000F04CF9401B0A2808D9606A40F4003024
:100C00006062052084F82000012070BD20684068E3
:100C1000C007EDD02068016821F0020101600120C9
:100C200084F82000002070BD7047704770477047FF
:100C3000704770477047000070B5044600F026F911
:100C40000546601C02D004480078044400F01EF9F8
:100C5000401BA042FAD370BDB400002070470000D2
:100C6000044910B50A68024202D00860FFF7F6FF97
:100C700010BD0000140401402DE9F84FDFF8C891C1
:100C80000024A9F1040B23460F2709F1040AABF154
:100C9000040ED1E00125A54006EA0502AA4276D15C
:100CA000DFF8A8C14E68A6EB0C0866452BD00DDC1A
:100CB000032E34D005DC36B3012E19D0022E2FD1ED
:100CC0001BE0112E16D0122E2AD119E0B8F5881F7C
:100CD00019D006DCB8F5803F15D0B8F5801F1FD1BC
:100CE00011E0B8F5001F0ED0B8F5041F18D10AE0C6
:100CF000CB6815E0CB681B1D12E0CB6808330FE012
:100D0000CB680C330CE08B682BB1012B4FF0080340
:100D100003D0456104E0042302E0056100E0002304
:100D2000FF2A01D8064601E000F104064FEA8405D7
:100D300001D9A5F12005D6F8008007FA05FC28EABC
:100D40000C0803FA05F548EA0508C6F800804D6866
:100D5000ED0070D53E4DAE6946F00106AE61AD695D
:100D600024F0030605F0010500953A4D06EB050C4D
:100D7000DCF80850A607360F07FA06F825EA08053A
:100D8000DFF8D480404503D14FF0000825E052E061
:100D9000DFF8C880404502D14FF001081DE0DFF8C0
:100DA000C080404502D14FF0020816E0DFF8B48061
:100DB000404502D14FF003080FE0DFF8AC8040451A
:100DC00002D14FF0040808E0DFF8A080404502D1CE
:100DD0004FF0050801E04FF0060808FA06F848EA67
:100DE0000508CCF808804D68D9F80060ED024D4642
:100DF00001D5164300E096432E604D68DAF8006096
:100E0000AD02554601D5164300E096432E604D686D
:100E1000DBF80060AD035D4601D5164300E0964364
:100E20002E604D68DEF80060ED03754601D516436F
:100E300000E096432E60641C0A681646E2407FF488
:100E400029AFBDE8F88F0000080401400000111030
:100E5000001002400000014000080140000C014069
:100E6000001001400014014000180140001C014026
:100E7000C26821EA02030A4043EA02410161704765
:100E80000AB1016170470904FBE70000014880686E
:100E900070470000B400002070B5040025D094F81D
:100EA0003D00002520B984F83C50204600F07CFA33
:100EB000242084F83D002068016821F001010160D0
:100EC0002068016841F4004101602068016821F454
:100ED0000041016000F0EAFB4D4A6168914201D88F
:100EE0004C4900E04C49884201D2012070BD4B4979
:100EF0002368B0FBF1F15E6826F03F060E435E60AA
:100F00006368934206D94FF4967359434FF47A734A
:100F1000B1FBF3F12368491C1E6A26F03F063143FA
:100F200019626168914210D84900401EB0FBF1F28D
:100F3000521CC2F30B02042A01D2042022E0B0FBAF
:100F4000F1F0401CC0F30B001CE0A268F2B301EB0F
:100F5000C10303EB0116431EB3FBF6F35B1C43F422
:100F600080431B0549D092B301EBC10202EB011192
:100F7000401EB0FBF1F0401CC0F30B0040F4804079
:100F800040F400402168CA694CF6FF739A4310434D
:100F9000C861D4E9071001432068026822F0C0024A
:100FA00011430160D4E9030101432068826848F2DB
:100FB000FF339A4311438160D4E905010843216856
:100FC000CA6822F0FF021043C86001E00EE016E09C
:100FD0002068016841F0010101602564202084F847
:100FE0003D00256384F83E50002070BD01EB4106B2
:100FF000431EB3FBF6F35B1CB3E70120C2E701EB32
:101000004101401EB0FBF1F0401CC0F30B00B7E7FC
:10101000A086010080841E0000093D0040420F00B0
:101020002DE9F84F1F4690468A460446DDF8289081
:10103000FFF72CFF054694F83D0020287FD11923A7
:10104000012240492046009501F004FB002876D19A
:1010500094F83C00012872D0012084F83C002068FC
:101060000168C90703D1016841F0010101602068EE
:10107000016821F400610160212084F83D00102006
:1010800084F83E0000262664C4F824806785608DBD
:1010900020852D48E0622B464A465146204601F005
:1010A000E1F990B9206841698069009036E02A46EC
:1010B0004946204601F0ACFB50B1206C042804D115
:1010C0002068016841F4007101600120BDE8F88FDB
:1010D000606A216800780861606A401C6062618D06
:1010E000491E6185218D491E89B221852268536977
:1010F000DB435B070BD451B100781061606A401C80
:101100006062608D401E6085208D401E20852A46CD
:101110004946204601F072FA0028CED1208D0028E1
:10112000C5D154F83D0B016841F4007101602020E5
:1011300004F81E09E67766770020C7E7FFE702207C
:10114000C4E70000020010000000FFFF2DE9FF4F80
:1011500083B00025DDE910799A4693460446DDF810
:1011600048800095FFF792FE064694F83D0020283F
:101170007CD11923012288492046009601F06AFAA1
:101180000028F5D194F83C0001286FD0012084F8A4
:101190003C0020680168C90703D1016841F00101E2
:1011A00001602068016821F400610160222084F858
:1011B0003D00402084F83E0025646762A4F82A9030
:1011C000608D20857548E062CDE9008653465A4619
:1011D0002046049901F094F900287CD1208DDFF895
:1011E000C091202768B1012814D002282068016826
:1011F0001ED041F4806101602068416980690090DF
:10120000BCE02068416981690091016841F4007186
:101210000160B3E02068016821F48061016072B66A
:101220002068416981690091016841F400710AE018
:1012300041F40061016072B62068416981690091E2
:10124000016821F48061016062B697E0032865D8E7
:1012500001280CD0022843464FF0000249462046A0
:1012600000960BD001F0F6F9A8BB0CE091E03246F5
:101270004146204601F094FA68BB72E001F0EAF9B9
:1012800048BB72B633E02068016821F480610160D8
:1012900072B620680069616A0870606A401C60620A
:1012A000208D401E2085608D401E60853D4846F2A1
:1012B000A8110068B0FBF1F0C0EBC00000EB8000AB
:1012C0000090401E009007D020684069C04340074E
:1012D0000DD50098F5E727E044F8305F6773A573F4
:1012E000206940F02000206162B625731CE0206870
:1012F000016841F40071016020680069616A08704A
:10130000606A401C6062218D491E2185618D491EE5
:10131000618562B621680969017026E0324641465E
:10132000204601F03DFA18B1012007B0BDE8F08F6A
:1013300020680069616A0870606A401C6062208DE4
:10134000401E81B22185608D401E60852068426903
:10135000D243520712D4032903D1016821F48061DA
:10136000016020680069616A0870606A401C606200
:10137000208D401E2085608D401E6085208D0028B8
:101380007FF464AF84F83D7084F83E5084F83C509C
:10139000CBE70220C9E70000020010000000FFFFB9
:1013A00004000100C000002030B585B0002100918C
:1013B000019102910391214D0368214C12210322D6
:1013C0002048AB421DD1A36943F00803A361A36980
:1013D000039203F0080304931302CDE90031694638
:1013E000FFF74AFC1848416841F0E06141F0020112
:1013F0004160E06940F40010E061E06900F4001031
:1014000019E0124DAB4217D1A36943F00803A36161
:10141000A369039203F0080304934FF44063CDE9FA
:1014200000316946FFF728FCE06940F48000E06184
:10143000E06900F48000049005B030BD0054004025
:1014400000100240000C0140000001400058004024
:10145000024881680278114481607047B40000201E
:10146000074810B5016841F010010160032000F049
:1014700075F80F2000F006F800F024F8002010BDE9
:101480000020024070B50D4D04464FF47A71287863
:10149000B1FBF0F00A490968B1FBF0F000F068FC1C
:1014A00048B9102C07D200222146501E00F036F811
:1014B00000206C6070BD012070BD0000B4000020F1
:1014C000C00000200C4808B5816941F0010181612C
:1014D000816901F001010091C16941F08051C16150
:1014E000C06900F0805000900448416821F0E0613C
:1014F00041F00071416008BD001002400000014051
:10150000002809DB00F01F02012191404009800002
:1015100000F1E020C0F8001170470000F0B40E4B5D
:101520001B680C46C3F30223C3F10705042D00D941
:101530000425191D072901D2002300E0DB1E012626
:1015400006FA05F1491E214099409E40761E16403C
:101550003143F0BC01F099BE0CED00E0064900F00B
:10156000070208684FF6FF03184040EA0220034ACA
:1015700010430860704700000CED00E00000FA0521
:101580002DE9F0470F46050061D0434E306800F06A
:101590000700B84209D2306820F0070038433060B5
:1015A000306800F00700B84251D128683B4C8107F1
:1015B00012D5400703D5606840F4E0606060287889
:1015C000000703D5606840F4605060606068A968F7
:1015D00020F0F000084360602878C00728D06868D1
:1015E000012810D02168022810D0890700292EDA9E
:1015F000616821F0030101436160FFF747FC804609
:1016000041F288390DE021688903EFE78901EDE7B0
:10161000FFF73CFCA0EB0801494502D90320BDE8D7
:10162000F0876068696800F00C00B0EB810FEFD1C3
:10163000306800F00700B8420BD9306820F007008E
:1016400038433060306800F00700B84201D0012014
:10165000E5E72878400705D56068E96820F4E06090
:10166000084360602878000706D56068296920F47F
:10167000605040EAC100606000F038F86168084AD4
:10168000C1F30311515CC840064908600648006870
:10169000FFF7F8FE0020C2E70020024000100240E1
:1016A0001E390008C0000020B80000200448054989
:1016B00000684968044AC1F30221515CC840704780
:1016C000C0000020001002402E39000804480549DF
:1016D00000684968044AC1F3C221515CC8407047A0
:1016E000C0000020001002402E3900080E4A516848
:1016F0000E4801F00C03042B11D0082B0FD10C481D
:10170000C1F38343C903C05C0AD55168084AC1F3D9
:101710004041921E515C054A5043B0FBF1F07047C6
:1017200004494843704700000010024000127A004C
:101730000E39000800093D002DE9F84F040070D073
:101740002078C04DC00749D06868C0F381000128E7
:1017500007D06868C0F38100022809D16868C00317
:1017600006D52868800339D560680028E7D035E0C1
:101770006068B0F5803F0BD010B1B0F5A02F11D04C
:10178000286820F480302860286820F4802002E057
:10179000286840F480302860606890B1FFF776FBDD
:1017A00006460AE0286840F480202860F0E700BF81
:1017B000FFF76CFB801B642873D828688003F7D57B
:1017C0000CE0FFF763FB064605E000BFFFF75EFB9A
:1017D000801B6428F0D828688003F7D420789A4EBC
:1017E00080074FF001094FF0000839D5686810F004
:1017F0000C0F07D06868C0F38100022809D168681F
:10180000C00306D42868800714D52069012808D1B0
:1018100010E02069B0B1C6F80090FFF737FB07462B
:1018200005E00AE1FFF732FBC01B0228C4D8286894
:101830008007F7D52868616920F0F80040EAC10008
:1018400028600DE0C6F80080FFF720FB074604E0A3
:10185000FFF71CFBC01B022823D828688007F7D499
:10186000207800072CD57948A169D9B1C0F800903B
:10187000FFF70CFB074604E0FFF708FBC01B02283C
:101880000FD8686A8007F7D571484FF4FA5100689D
:10189000B0FBF1F0009000BF0098411E0091FAD219
:1018A0000EE080E0C0F80080FFF7F0FA074604E0A1
:1018B000FFF7ECFAC01B022875D8686A8007F7D4D6
:1018C0002078400760D5E8690027C00008D4E8699F
:1018D00040F08050E861E869012700F080500090F6
:1018E0005C480168C90513D40168834641F48071DE
:1018F0000160FFF7CBFA824606E000BFFFF7C6FAA9
:10190000A0EB0A0064284ED8DBF80000C005F5D52E
:10191000E06801280AD008B1052813D0286A20F011
:1019200001002862286A20F0040002E0286A40F0E2
:1019300001002862E06841F2883B98B1FFF7A6FAFF
:1019400082460BE0286A40F004002862EEE700BF00
:10195000FFF79CFAA0EB0A0159455AD8286A80077C
:10196000F6D50CE0FFF792FA824605E0FFF78EFA13
:10197000A0EB0A0159454CD8286A8007F6D41FB15C
:10198000E86920F08050E861E06988B36968C1F3D4
:101990008101022944D00228C6F8608004D0FFF7F4
:1019A00075FA044638E034E0FFF770FA074604E0C1
:1019B000FFF76CFAC01B02282BD828688001F7D4E7
:1019C000206AB0F5803F05D16868A16820F4003036
:1019D00008436860D4E908010843696821F4741178
:1019E00008436860C6F86090FFF750FA044606E0C6
:1019F00025E000BFFFF74AFA001B022809D8286833
:101A00008001F7D51BE000BFFFF740FA001B02285A
:101A100002D90320BDE8F88F28688001F4D40EE0D5
:101A20000128F7D06868226A00F48031914204D11D
:101A3000616A00F47010884201D00120EAE70020BA
:101A4000E8E70000001002400000424280044242E9
:101A5000C00000200070004070B5040009D0606A2A
:101A6000002540B125616561A56294F8510040B13F
:101A70000CE0012070BD6068B0F5827FF4D0E561B4
:101A8000F2E784F85050204600F040F8022084F835
:101A900051002068016821F040010160A08821897F
:101AA00000F4827001F404410843A18901F400614B
:101AB0000843217C01F002010843217D01F001016E
:101AC0000843218B01F400710843217F01F03801A4
:101AD000084394F8201001F080010843218D01F49F
:101AE0000051084321680860A069042101EA104000
:101AF000216848602068C16921F40061C1616565A1
:101B0000012084F85100002070BD000030B585B080
:101B100000240094019402940394006815498842BB
:101B200025D11548C16941F48041C161C16901F401
:101B300080410491816941F00801816180690F4D04
:101B400000F0080004904FF4204000900220019023
:101B50000320039069462846FFF78EF84FF4804033
:101B6000CDE90004694628460294FFF785F805B0E0
:101B700030BD00000038004000100240000C014061
:101B80002DE9FF4F81B01D46934604464FF00109F1
:101B90000E9EFFF77BF9074694F851006168012813
:101BA00006D0B1F5827F3CD1A168C9BB042838D1E9
:101BB0000298002871D0BBF1000FFBD0002DF9D0A6
:101BC00094F8500001282CD04FF0010A84F850A05E
:101BD00094F85100042802D0052084F851004FF0F9
:101BE0000008C4F85480C4F838B0E587A587029986
:101BF0002163E586A586C4F84080C4F84480206847
:101C00000168490603D4016841F040010160E068C1
:101C1000B0F5006F606808D0F0B3012D49D081E0C5
:101C2000FFE7022005B0BDE8F08F08B1012D39D1E2
:101C3000206B21680088C860206B801C2063E08EC8
:101C4000401EE0862EE02068816889070FD5E18E6E
:101C500069B1B9F1010F0AD1216B0988C160206B0C
:101C6000801C2063E08E401EE0864FF00009206853
:101C70008168C9070CD0E18F51B1C068A16B0880A1
:101C8000A06B801CA063E08F401EE0874FF001092D
:101C9000FFF7FCF8C01B01E00BE067E0B04201D3A6
:101CA000701C50D1E08E0028CDD1E08F0028CAD121
:101CB0003EE0206B216800780873206B401C206395
:101CC000E08E401EE0862DE02068816889070FD5F0
:101CD000E18E69B1B9F1010F0AD1216B0978017365
:101CE000206B401C2063E08E401EE0864FF0000910
:101CF00020688168C9070CD0E18F51B1C068A16B21
:101D00000870A06B401CA063E08F401EE0874FF07E
:101D10000109FFF7BBF8C01BB04202D3701C01D011
:101D200011E086B1E08E0028CED1E08F0028CBD123
:101D30003A463146204601F050F850B12020606507
:101D400084F8508012E084F851A084F85080032079
:101D500068E7A06818B92068C1688068009084F8B6
:101D600051A084F85080606D0028F1D0012059E71F
:101D700010B5401EB0F1807F01D3012010BD4FF09F
:101D8000E02460610F21601701F07FFA0020A0615C
:101D900007202061002010BD7047704770B590F893
:101DA0003C20012A2CD0012480F83C40022280F8FB
:101DB0003D2003685A689D6822F070060A68324325
:101DC0005A60104B02689A420ED00F4B9A420BD0C9
:101DD000B2F1804F08D00D4B9A4205D00C4B9A427D
:101DE00002D00C4B9A4204D1496825F08003194374
:101DF000916080F83D40002180F83C10084670BD9D
:101E0000022070BD002C014000340140000400405D
:101E100000080040000C004010B5040003D094F806
:101E20003D0010B107E0012010BD002084F83C0007
:101E3000204600F01FF8022084F83D00211D206894
:101E400001F064F9012084F8460084F83E0084F82B
:101E50003F0084F8400084F8410084F8420084F890
:101E6000430084F8440084F8450084F83D000020D5
:101E700010BD000008B500680B49884212D10B481C
:101E8000C16941F01001C161C069002200F0100079
:101E9000009011463620FFF741FBBDE80840362090
:101EA000FFF72EBB08BD00000010004000100240EC
:101EB00090F83D10012901D001207047022180F8DF
:101EC0003D100168CA6842F00102CA6000680E490C
:101ED00088420ED00D4988420BD0B0F1804F08D017
:101EE0000B49884205D00B49884202D00A498842F2
:101EF00004D1816801F00701062903D0016841F08F
:101F00000101016000207047002C014000340140B5
:101F10000004004000080040000C00402DE9F041A2
:101F20000D46040003D094F83D0018B108E00120EC
:101F3000BDE8F081002084F83C00204600F040F825
:101F4000022084F83D002068816844F20702914332
:101F50008160211D206801F0D9F82268906891699C
:101F6000166A2B68AF69034340F20330814341EAAC
:101F70000721A868EF6908434FF6FC418843E968E8
:101F800040EA0720014328692F6A000140EA073030
:101F9000084369686D6926F0220646EA051529435B
:101FA00093602268906154F8460B0162012004F8A6
:101FB0001F09E0752076E0762077A0750020B7E74E
:101FC00030B585B000240094019402940394006815
:101FD000564B5749574A984212D1886940F40060DD
:101FE0008861886900F400600490886940F004000A
:101FF0008861886900F0040004904FF440707BE031
:102000004D4DB0F1804F1BD04C4CC023A04248D165
:10201000C86940F00200C861C86900F0020004907D
:10202000886940F0040088618869009300F004002A
:10203000049069464FEA0200FEF71EFE05B030BD6F
:10204000C86940F00100C861C86900F0010004904F
:10205000886940F004008861886900F004000490F9
:10206000886940F0080088618869694600F00800C6
:1020700004904FF4004000901046FEF7FDFD08204C
:10208000CDE90004694628460294FEF7F5FD2C4888
:10209000416821F4407141F0E06141F48071416098
:1020A000CCE7284CA04213D1C86940F00400C861B5
:1020B000C86900F004000490886940F00800886155
:1020C0008869694600F00800049000932846B3E749
:1020D0001D4CA04212D1C86940F00800C861C8690F
:1020E00000F008000490886940F004008861886965
:1020F00000F004000490032000909AE7134A9042F5
:102100009CD1886940F400508861886900F40050CF
:102110000490886940F0100088618869694600F081
:102120001000049000930A4886E70000002C01404C
:102130000010024000080140000C01400004004073
:102140000000014000080040000C00400034014045
:102150000010014070B590F83E60044690F83F5082
:1021600090F8423090F84320022021B104290ED08B
:10217000012E1BD114E0012E18D1012B16D184F8A9
:102180003E0084F8420001220021206820E0012D59
:102190000CD1012A0AD184F83F0084F8430014E0EE
:1021A000012D03D1012B01D1012A01D0012070BDE5
:1021B00084F83E0084F83F0084F8420084F843002D
:1021C00001220021206800F0EFFF01220421206895
:1021D00000F0EAFF2068016841F001010160002081
:1021E00070BD70472DE9F04104460068C668056976
:1021F0004FF00007A90713D5B10711D5F91E0161EA
:1022000001202077206880698007204602D0FFF7F0
:10221000E8FF04E000F07EF8204600F07CF8277725
:10222000680716D5700714D521686FF0040008619F
:10223000022020772068806910F4407F204602D079
:10224000FFF7CFFF04E000F065F8204600F063F8E8
:102250002777280715D5300713D521686FF00800B8
:102260000861042020772068C0698007204602D0DA
:10227000FFF7B7FF04E000F04DF8204600F04BF800
:102280002777E80616D5F00614D521686FF0100000
:102290000861082020772068C06910F4407F20463C
:1022A00002D0FFF79EFF04E000F034F8204600F073
:1022B00032F82777E80708D0F00706D021686FF0DA
:1022C00001000861204600F027F8280608D53006EE
:1022D00006D521686FF0800008612046FFF75CFD9D
:1022E000680608D5700606D521686FF040000861C1
:1022F000204600F033F8A8060AD5B00608D52168B4
:102300006FF0200008612046BDE8F041FFF745BDB1
:10231000BDE8F0817047704770B500680D4988428C
:1023200017D1FEF71DF80C4C00252088401C80B208
:102330002080142802D3258000F04CFE6088401CC9
:1023400080B26080C82804D36580BDE8704000F08A
:10235000BDBD70BD00100040AE000020704770B5DC
:10236000040004D094F84100002510B106E00120DB
:1023700070BD84F84050204600F024F8242084F8F2
:1023800041002068C16821F40051C160204600F07E
:1023900019FF2068016921F49041016120684169B9
:1023A00021F02A0141612068C16841F40051C160F7
:1023B0006564202084F8410084F8420065630020B1
:1023C00070BD000030B585B00024009401940294E3
:1023D000039400681449884223D11448C16941F428
:1023E0000031C161C16901F400310491816941F09A
:1023F0000401816180690E4D00F004000490042006
:102400000090022001900320039069462846FEF7C1
:1024100033FC0820CDE90004694628460294FEF703
:102420002BFC05B030BD000000440040001002400D
:1024300000080140FEE701684A69D24352050FD403
:102440006FF480624A61002140F8301F20224273FD
:102450008173026942F00402026101730120704736
:1024600000207047F8B50446C06A1E460D46174660
:10247000082807D0012805D010F5803F02D0206B36
:10248000122804D12068016841F48071016013466C
:1024900000224FF001112046009600F0DBF840B119
:1024A00020680068C00502D54FF400702064032046
:1024B000F8BD2069B0F5804F0ED00620216800EAF3
:1024C000D51040F0F000086133463A460B492046EB
:1024D00000F008F978B902E005F0FE0000E0E8B28B
:1024E00021680861054933463A46891F204600F0B5
:1024F000F9F80028DCD00120F8BD00000800010038
:102500002DE9F84F0446006889460B9D01689846FE
:10251000174641F4806101602068016841F48071D0
:10252000016000954FF0011B0022594620460A9B8E
:1025300000F090F84FF4007A40B120680068C005C0
:1025400001D5C4F840A00320BDE8F88F216809F048
:10255000FE0008612B46284920460A9A00F0C2F87E
:10256000F0BB20684169806900902A4620460A999C
:1025700000F04EF940B1206C04283AD1206801687F
:1025800041F40071016034E0FEB2B8F1010F09D0EE
:102590002168380A08612A4620460A9900F038F96D
:1025A0000028E8D1206806612A4620460A9900F0F2
:1025B0002FF90028DFD12068016841F480710160A3
:1025C00000950022594620460A9B00F043F8002857
:1025D000B3D1216809F0FF0040F00100086100E07C
:1025E00007E02B46044920460A9A00F07BF80028B1
:1025F000AAD00120A8E700000200010070B516462D
:102600000D4604461EE02046FFF715FF08B10120E5
:1026100070BD681C16D0FEF739FC801BA84200D89C
:1026200085B920684069C04340070BD5002044F8B5
:10263000300F20216173A073216941F020012161D5
:102640002073E4E720684069C0434007DBD40020E2
:1026500070BD00002DE9F047984617460D46044628
:10266000C1F30746DDF820902AE000BFB8F1FF3F34
:1026700026D0FEF70BFCA0EB0901414502D8B8F1CA
:10268000000F1DD12068012E16D0806925EA0000B8
:102690000004000C12D00020B84211D1002044F8F0
:1026A000300F20216173A073216941F02001216165
:1026B00020730120BDE8F0874069E7E70120EBE7E0
:1026C0002068012E0AD0806925EA00000004000C71
:1026D00006D00020B842C9D00020EBE74069F3E7FC
:1026E0000120F7E72DE9F047984616460D460446C7
:1026F0004FF000094FF0200AC1F3074723E020689C
:102700004069C043400515D42068016841F4007158
:10271000016021686FF480604861C4F8309084F8EB
:102720003DA084F83E90216C41F00401216484F8BE
:102730003C9021E0701C06D0FEF7A8FBA0EB08003F
:10274000B04203D816B1012F1FD021E02068012F1D
:1027500015D0806925EA00000004000C18D000BFE5
:1027600044F8309F84F80DA084F80E90216941F060
:102770002001216184F80C900120BDE8F0874069B8
:1027800025EA00000004000CEAD12068406901E05D
:102790002068806925EA00000004000CAFD1ECE756
:1027A0002DE9F041002590460E460446202728E0FA
:1027B0004069C043C0060CD454F8301B6FF01000C1
:1027C000486144F810596777A577206A2062257719
:1027D00014E0FEF75BFBA0EB0800B04200D886B91E
:1027E00020684069C04340060BD544F8305F6773EA
:1027F000A573206940F02000206125730120BDE809
:10280000F08120684169C9434906D1D40020F6E728
:1028100070B516460D4604461EE02046FFF70BFE37
:1028200008B1012070BD681C16D0FEF72FFB801B7D
:10283000A84200D885B920684069C04300060BD57E
:10284000002044F8300F20216173A073216941F00A
:10285000200121612073E4E720684069C04300063D
:10286000DBD4002070BD00000149012008707047D2
:10287000AC00002000B518488BB016490160042157
:10288000416000214FF08072C0E902129211026192
:10289000D20042610176012242768176C2760177CA
:1028A0004177FEF779F808B1FDF7FAFD28220B49C8
:1028B0006846FDF7ABFC69460748FDF76DFE064824
:1028C000FEF756F948F202410348FDF7EBFD0BB065
:1028D00000BD00000064004028010020E43800082A
:1028E0002DE9F04F85B000244548009401940294EE
:1028F0000394816941F010018161816901F0100147
:102900000491816941F080018161816901F0800158
:102910000491816941F004018161816901F0040140
:102920000491816941F008018161816901F0080128
:102930000491816941F020018161816901F02001E8
:102940000491816941F4807181618069DFF8B490FC
:1029500000F480700490002202214846FEF790FAAD
:10296000DFF8A4A001220C215046FEF789FADFF817
:102970009CB04FF46057002239465846FEF780FA63
:102980004FF40058002241462148FEF779FA02260A
:102990000125CDE90065CDE9024669464846FEF7C6
:1029A0006BF90C20CDE9000569465046CDE902459A
:1029B000FEF762F9402000901648CDE9010469460F
:1029C0005046FEF759F900970396CDE90154694640
:1029D0005846FEF751F9CDF800800396CDE9015431
:1029E00069460B48FEF748F9002211461720FEF70A
:1029F00095FD1720FEF784FD05B0BDE8F08F0000BF
:102A000000100240001C0140001401400020014061
:102A100000100140000011100D4810B50B49016075
:102A20000C49416000214FF480428160C0E90312EB
:102A300041618161C1610162FEF72EFA002803D075
:102A4000BDE81040FDF72CBD10BD00000054004053
:102A500050010020801A06000D4810B50B49016096
:102A60000C49416000214FF480428160C0E90312AB
:102A700041618161C1610162FEF70EFA002803D055
:102A8000BDE81040FDF70CBD10BD0000005800402F
:102A9000A4010020801A0600104810B50E490160FC
:102AA0004FF48271416000218160C1604FF4007277
:102AB0000161C0E905121022C0E90721416281626B
:102AC0000A21C162FEF7C8FF002803D0BDE810400C
:102AD000FDF7E6BC10BD000000380040F801002002
:102AE00010B58CB024216846FDF7C2FB00241648BF
:102AF000099414490A94C0E900144FF6FF71C0E923
:102B000002410461446184610120CDE90004CDE902
:102B100002040494CDE90540079469460A480894E4
:102B2000FFF7FCF908B1FDF7BBFC099409A90648B9
:102B30000A94FFF733F9002801D0FDF7B1FC0CB07F
:102B400010BD0000002C01405002002010B58CB0D8
:102B500024216846FDF78CFB0024154809944FF0AA
:102B600080410A94C0E900144FF6FF71C0E90241A8
:102B7000046184610120CDE90004CDE902040494DC
:102B8000CDE905400794694609480894FFF7C6F95E
:102B900008B1FDF785FC099409A905480A94FFF7D7
:102BA000FDF8002801D0FDF77BFC0CB010BD000043
:102BB0009802002010B58CB024216846FDF758FB20
:102BC00000241548099413490A94C0E900144FF6EB
:102BD000FF71C0E90241046184610120CDE9000474
:102BE000CDE902040494CDE90540079469460A48FA
:102BF0000894FFF793F908B1FDF752FC099409A96D
:102C000005480A94FFF7CAF8002801D0FDF748FCF0
:102C10000CB010BD00040040E002002010B58CB0E4
:102C200024216846FDF724FB002415480994134924
:102C30000A94C0E900144FF6FF71C0E90241046133
:102C400084610120CDE90004CDE902040494CDE9BA
:102C50000540079469460A480894FFF75FF908B1F0
:102C6000FDF71EFC099409A905480A94FFF796F898
:102C7000002801D0FDF714FC0CB010BD0008004086
:102C80002803002010B58CB024216846FDF7F0FA27
:102C900000241548099413490A94C0E900144FF61A
:102CA000FF71C0E90241046184610120CDE90004A3
:102CB000CDE902040494CDE90540079469460A4829
:102CC0000894FFF72BF908B1FDF7EAFB099409A96D
:102CD00005480A94FFF762F8002801D0FDF7E0FBF1
:102CE0000CB010BD000C0040700300201CB5002487
:102CF0000E4800940C49019401604721C0E9011479
:102D000040F2F3118461C160FFF786F808B1FDF766
:102D1000C7FB0094694605480194FFF73FF8002877
:102D200001D0FDF7BDFB1CBD00100040B803002022
:102D300010B58CB024216846FDF79AFA0024164895
:102D4000099414490A94C0E900144FF6FF71C0E9D0
:102D500002410461446184610120CDE90004CDE9B0
:102D600002040494CDE90540079469460A48089492
:102D7000FFF7D4F808B1FDF793FB099409A90648B9
:102D80000A94FFF70BF8002801D0FDF789FB0CB07F
:102D900010BD000000340140000400200C4810B5B4
:102DA0000A4901604FF4E1314160002181600C2249
:102DB000C160C0E904128161C161FFF7D0FA002847
:102DC00003D0BDE81040FDF76BBB10BD00440040D0
:102DD00048040020FEE7FEE77047F8B515460E46AA
:102DE0000B46009204460122022100F011F840B97E
:102DF0003346002280212046009500F009F8002883
:102E000004D0606D40F0200060650320F8BD000034
:102E10002DE9F8431E46914688460446089DFEF774
:102E200035F8401B351AFEF731F80746254800688B
:102E3000C0F3CB30684338E0701C37D0FEF726F87B
:102E4000C01BA84203D215B1009860B32CE02068E3
:102E5000416821F0E00141606068B0F5827F0BD1EC
:102E6000A068B0F5004F02D0B0F5806F04D12068A3
:102E7000016821F040010160A06AB0F5005F09D14E
:102E80002068016821F4005101602068016841F464
:102E900000510160012084F85100002084F85000A6
:102EA0000320BDE8F8830025401E0090206881685B
:102EB00038EA010004D000214945BDD10020F0E7E7
:102EC0000121F9E7C0000020704700002DE9F04122
:102ED0003D4EA6B003AD002204213046FDF7D0FFE1
:102EE000FF2000F055FA0024B714A046002000F09F
:102EF0004FFAB52804D1002000F04AFA622831D0F8
:102F0000641CA4B2BC42F1D3012204213046FDF777
:102F1000B7FF20A800900A210224CDE90141012336
:102F2000002290212948FEF711F9002817D1182115
:102F30001AA8FDF79DF94FF48A60CDF870801A90B9
:102F4000CDE91D84BDF8800001AB010A8DF80010A9
:102F50008DF801006A461AA91D48FDF7B5FA26B09A
:102F6000BDE8F0810024002000F012FA2855641C0E
:102F7000E4B25C2CF7D3012204213046FDF780FF38
:102F8000DDE9097618211AA8049D0C9CFDF770F95B
:102F9000CDF870800820CDE91D804FF488601A902C
:102FA00024AB22AA1AA90A48CDE92267FDF78CFAB8
:102FB00040F241401A9024AB22AA1AA90448CDE954
:102FC0002245FDF781FAA4E70014014050010020DA
:102FD00028010020F0B526488DB00178002945D0A1
:102FE00000250570234F6E462A4608213846FDF716
:102FF00047FFAD2000F0CCF90024002000F0C8F914
:103000003055641CE4B20E2CF7D301220821384657
:10301000FDF736FF182104A8FDF72AF908200695C8
:10302000CDE907504FF486600490DDE90001CDE959
:103030000A010CAB0AAA04A90F48FDF745FA40F2B1
:103040003140049002980A90BDF80C00ADF82C00B5
:103050009DF80C008DF82E009DF80D008DF82F00C6
:103060000CAB0AAA04A90448FDF72EFA0DB0F0BD76
:10307000AC000020001401402801002010B5064CCF
:10308000012208212046FDF7FBFE20460122BDE873
:1030900010400421FDF7F4BE00140140FEF7D8B93A
:1030A00030B58FB028216846FDF7E2F814210AA850
:1030B000FDF7DEF801210804CDE900100024029498
:1030C00002250491CDE907504FF4E01009906846BD
:1030D000FEF732FB08B172B6FEE70F20CDE90A0514
:1030E0004FF48060CDE90C4002210AA80E94FEF74F
:1030F00047FA002801D072B6FEE70FB030BD704726
:103100000148FFF76FB80000B8030020F0B502686F
:10311000204C214D214E224F224B4FF0804CA0429B
:1031200009D0984207D0604505D0A84203D0B042EC
:1031300001D0B84204D122F0700E4A6842EA0E0271
:10314000A04209D0984207D0604505D0A84203D0DC
:10315000B04201D0B84203D122F44075CA682A4374
:103160004D6922F080022A4302608A68C2620A68BE
:103170008262A04201D0984201D109690163012114
:1031800041610169C90703D0016921F001010161B1
:10319000F0BD0000002C0140000400400008004089
:1031A000000C00400034014010B501F01F03012164
:1031B000046A99408C430462016A9A401143016297
:1031C00010BD000070B5044600680169E26821F492
:1031D0004051114301612169A068084361690843B6
:1031E0002168CA6841F20C639A430243CA602068AE
:1031F0004169A26921F44071114341611E4920686F
:10320000884202D1FEF762FA01E0FEF74FFA00EBC6
:10321000C00101EB0012606864218000B2FBF0F392
:10322000B3FBF1F36FF018067343B2FBF0F5B2FB9A
:10323000F0F605EB8305322303EB0515B5FBF1F53D
:10324000B6FBF1F605F0F00505EB0615B2FBF0F65E
:10325000B2FBF0F0B0FBF1F06FF01802504306EB58
:10326000800003EB0010B0FBF1F0216800F00F00CC
:103270002844886070BD0000003801400148FDF717
:103280008DBA000028010020FEE70907090E00287A
:1032900004DB00F1E02080F80014704700F00F001C
:1032A00000F1E02080F8141D70470000FEF7D8F808
:1032B000FFF7F6FEFFF714FBFFF7DCFAFFF7CCFB96
:1032C000FFF76CFDFFF7E8FBFFF70AFCFFF73EFC9A
:1032D000FFF770FCFFF7A2FCFFF7D4FCFFF728FD17
:1032E000FFF79AFBFFF702FDFDF726F8FFF7C6FE92
:1032F0000848FEF7DDFDFDF7ADF8074D4FF400542B
:103300004FF4FA7621462846FDF7B2FD3046FDF728
:1033100093FCF7E7B80300200010014030B500220D
:1033200091240DE010F8013B5A400023D50702D04C
:1033300084EA520200E052085B1CDBB2082BF5D392
:10334000491EC9B2EED202F07F0030BD3EB5044640
:10335000D1208DF8040001F07F008DF8050002F007
:103360007F008DF80600C2F3C6108DF80700042117
:1033700001A8FFF7D3FF8DF808000A20009005236D
:1033800001AA21460148FDF74BFE3EBDA4010020E5
:1033900001B582B002200090012301AA02A90348CE
:1033A000FEF7EEFB9DF804000EBD0000F8010020C2
:1033B00090EA010F48BF81F0004100F12482421AD7
:1033C0003CBF801A89184FEAD0524FF07F4C1CEA5C
:1033D000410FA2EBD15318BF9CEA026F00F03B8073
:1033E0004FF0004C4CEA00204CEA012121FA03FC8A
:1033F00010EB0C0C1ED202F1FF325FEA1C2040EBF6
:10340000C25038BF70471CF07F0F4FEA400C18BF06
:10341000BCF17F4F38BF7047C3F12003994008BF0C
:1034200020F00100BCF17F4F38BF7047A0F1C040D1
:1034300000F0DDB94FEA3C00000A40EBC25028BF63
:103440001CF0FF0F4FEA400CE6D018BFBCF17F4FD5
:1034500038BF7047EAE79CEA026F05D010EA5C0FBC
:1034600008BF00F00040704710B500F07AF900BFC7
:1034700064FBBE3E4FF47F0C1CEAD0121EBF1CEA58
:10348000D11392EA0C0F93EA0C0F00F0858090EABA
:10349000010F48BF42F4807240F4000C41F4000078
:1034A0002CF07F4120F07F4000B58142A2EB030267
:1034B0000FF2081CACEB504EC0F100009EF800E08B
:1034C0004FEA4E0E00FB0EFC38BF49004FEA2C1CA1
:1034D00002F5FA020CFB0EF34FEACE1E4FEA112C56
:1034E0004FEAC1210EEB635E42EB22420EFB0CFC65
:1034F0004FEA1C5300FB03114FEA112C4FEA013134
:103500000EFB0CFC4FEADC4C00FB0C11C14228BF47
:1035100009184CEB03335DF804EB10EB410143EB6E
:10352000C250B2F57C0F38BF704729D512F0F00FAA
:103530001CBF00F1C04000F0004070470081828352
:103540008485868788898B8C8D8E8F9192939596B2
:1035500097999A9C9D9FA0A2A3A5A7A8AAACAEB03C
:10356000B2B3B5B7B9BCBEC0C2C5C7C9CCCED1D441
:10357000D7D9DCDFE2E6E9ECF0F3F7FAFE00000071
:103580004FEA400C0CF1807CBCF17E4F28BF7047A5
:10359000B0F1C04000F02BB990EA010F0CEAD11352
:1035A00048BF42F48072624538BF634507D213F4C6
:1035B0007F0F16D080EA010000F00040704710B580
:1035C00000F0CFF8097EFC3E00F005B880EA01006B
:1035D00000F00040704780EA010000F0004000F079
:1035E00006B912F47F0F04BF0248704780EA010059
:1035F00000F0FDB80000C07F41000B0ED3F19E0229
:1036000008D950F400034FEA032323FA02F048BF1D
:103610004042704710B500F0A4F800BF49922480E2
:10362000002070476FF0004282EA200070470000DF
:1036300010F0004148BF4042B0FA80F310FA03F2A4
:10364000C3F19D030BD051EAC35101EB1220530685
:1036500038BF704700F1010008BF20F0010070473B
:103660004FF47F0C1CEAD0121EBF1CEAD11392EA61
:103670000C0F93EA0C0F00F0478090EA010F48BF4F
:1036800042F480724FF0004C4CEA00204CEA0121D9
:1036900002EB0302A0FB0113A2F50002002918BFF0
:1036A00043F001035B0028BF4FEA330342EB2242A1
:1036B0005FEA132C4CEBC2502EBFBCEB436FB2F54C
:1036C0007C0F70474FEA036CBCF1004F08BF20F03D
:1036D0000100B2F57C0F38BF70470BD582F0FF02B6
:1036E00012F5803FC8BF704700F1C040D8BF00F05E
:1036F0000040704700F5000C5FEA4C0C48BF704773
:10370000B0F1C04000F073B890EA010F0CEAD11399
:1037100048BF42F48072624538BF634504D280EAF4
:10372000010000F00040704710B500F01AF800BF2B
:103730008900013E00F007B800F009B85FEA410CCB
:103740005FEA1C6C08D080EA010000F050B85FEA24
:10375000400C5FEA1C6CF6D14FF00040A0F58000F1
:1037600070470EF1020E2EF0030E5EF8044B244259
:1037700004D44FEA4102B2F17F4F11D84FEA40031F
:10378000B3F17F4F0CD80ED14FEAD07CB2F17F4F0E
:103790000CEB4C0C0CF1020C08BF4CEBD17C04E0A0
:1037A0004FF0080C01E04FEAD17C0CEB4C0324FAFB
:1037B00003F404F00704B4F1040C06D20EEB840CFD
:1037C000BDE810404CF0010C6047DFE80CF0070842
:1037D00002024FF00040A0F5800010BD08464200F4
:1037E00018BFD2F1807288BF00F0004010BDFF21E9
:1037F00041EAD050C005704790EA010F48BF81F000
:1038000000413FF5DCAD421A04D882F00042A0EB43
:10381000020011444FEAD0524FF07F4C1CEA410F96
:10382000A2EBD15318BF9CEA026F4AD04FF0004C74
:103830004CEA00204CEA012121FA03FCB0EB0C0C0D
:103840000FD412F0FE0F36D05FEA4C001DD50012E7
:1038500040EBC25038BF70471CF03F0F18BF704795
:103860000BE0A2F101025FEA1C2040EBC25038BF1E
:1038700070471CF07F0F18BF7047C3F120039940B9
:1038800014BF401E20F00100704780084FEA122349
:1038900008BF7047B0FA80FCA2EB0C02CCF1280CF8
:1038A00060FA0CF093EA122F04BF00EBC25070478D
:1038B0004FEAC3707047130A5FEADC1008BF704715
:1038C000F6E79CEA026F04D010EA5C0F08BF002004
:1038D000704710B5FFF745FF40DFF63E81F000402E
:1038E0007047000000000000000000000000000021
:1038F00000000000000000000000000000000000C8
:1039000001000000010000000000000001020203AD
:103910000405060708090A0B0C0D0E0F1010000015
:10392000000000000000010203040607080900006F
:1039300000000102030400005839000800000020C4
:10394000C40000006C0100081C3A0008C4000020FC
:103950002C0A0000880100085050505252520102B7
:103960000301020398020020E00200202803002047
:10397000700300205002002000040020CDCC4C3FFA
:103980000AD7A33C00000000000000000000000077
:10399000CDCC4C3F0AD7A33C000000000000000043
:1039A00000000000CDCC4C3F0AD7A33C0000000033
:1039B0000000000000000000CDCC4C3F0AD7A33C23
:1039C000000000000000000000000000CDCC4C3FD3
:1039D0000AD7A33C00000000000000000000000027
:1039E000CDCC4C3F0AD7A33C0000000000000000F3
:1039F00000000000000000000000000000000000C7
:103A000000000000000000000000000001000000B5
:0C3A1000100000000000000000127A000E
:0400000508000131BD
:00000001FF
