:020000040800F2
:10000000200B0020ED010008C3430008A5390008BB
:10001000C14300088D1500083549000800000000A4
:10002000000000000000000000000000B5440008CF
:100030007D17000800000000C5430008894600083D
:10004000070200080702000807020008070200086C
:10005000070200080702000807020008070200085C
:10006000070200080702000807020008070200084C
:10007000070200080702000807020008070200083C
:10008000070200080702000807020008070200082C
:100090002949000807020008070200088117000824
:1000A000070200080702000807020008070200080C
:1000B00007020008070200080702000807020008FC
:1000C00007020008070200080702000807020008EC
:1000D00007020008070200080702000807020008DC
:1000E00007020008070200080702000807020008CC
:1000F00007020008070200080702000807020008BC
:1001000007020008070200080702000807020008AB
:100110000702000807020008ED4600080702000871
:10012000070200080702000807020008070200088B
:1001300000F002F800F04AF80AA090E8000C8244AF
:100140008344AAF10107DA4501D100F03FF8AFF28C
:10015000090EBAE80F0013F0010F18BFFB1A43F0A5
:1001600001031847EC5C00000C5D0000103A24BF4E
:1001700078C878C1FAD8520724BF30C830C144BF0C
:1001800004680C607047000000230024002500264E
:10019000103A28BF78C1FBD8520728BF30C148BFEA
:1001A0000B607047662905F01884642900F05880B8
:1001B000002070471FB500F01FFC04000020002144
:1001C00004F0F4FCE0601FBD10B510BD00F014FD9C
:1001D0001146FFF7EFFF04F0D9FB00F032FD03B446
:1001E000FFF7F2FF03BC00F075FD000009488047EF
:1001F00009480047FEE7FEE7FEE7FEE7FEE7FEE709
:10020000FEE7FEE7FEE7FEE704480549054A064B20
:1002100070470000EB46000831010008200500206F
:10022000200B002020070020200700200FB41CB561
:100230000C0007AA009001D02044401E074B7B44CD
:1002400069460190069800F0B6FB002C03D0694681
:10025000002000F0C3FB1CBC5DF814FBA5070000E8
:100260002DE9F0410646002410687529314616A58F
:1002700010D0AFF30080002802DA404213A507E057
:1002800031688A0701D512A502E0490704D511A5F6
:10029000012401E0AFF3008000210A2206F12407C7
:1002A00009E0B0FBF2FCB0FBF2F302FB1C003030C3
:1002B00078541846491C0028F3D123462A46304674
:1002C000BDE8F04100F00AB9000000002D00000078
:1002D0002B000000200000002DE9F0474FF0000A3D
:1002E00089460446C0F820A02046E16888470028D7
:1002F00076D0252806D0D4E901219047206A401CF9
:100300002062F1E7E168204600258847C4F81CA078
:1003100006460027C4F818A02A2E09D0304604F05B
:100320002EFB38B304EB8708303EC8F8186019E09C
:1003300059F8041B204604EB87029161E168884765
:10034000012F064618D1E069002820DA25F02005A3
:100350001DE0D8F8180000EB800006EB40003038B4
:10036000C8F818002046E1688847064604F007FBF5
:100370000028EED1012F0AD02E2E08D12046E168A8
:1003800088477F1C0646022F45F02005C4DBA06984
:10039000002803DA404245F00105A061E80701D0DA
:1003A00025F01005B6B1A6F14100192802D8203673
:1003B00045F400654A463146204625604D46FFF724
:1003C000F1FE58B1012806D0ED1D25F0070000F11F
:1003D000080989E704E005F1040985E730468AE762
:1003E000206ABDE8F08710B5431C02E010F8011B3D
:1003F00071B18107FAD14FF0013202C88C1A8C43D7
:1004000014EAC211F9D0C01A0A0603D0C01E10BDEA
:10041000C01A10BD0A0401D0801E10BD0902FCD014
:10042000401E10BD10B5203AC0F00B80B1E8185046
:10043000203AA0E81850B1E81850A0E81850BFF4CE
:10044000F5AF5FEA027C24BFB1E81850A0E818506D
:1004500044BF18C918C0BDE810405FEA827C24BFC1
:1004600051F8043B40F8043B08BF7047D20728BF4F
:1004700031F8023B48BF11F8012B28BF20F8023B9E
:1004800048BF00F8012B70474FF0000200B513463B
:1004900094469646203922BFA0E80C50A0E80C50A4
:1004A000B1F12001BFF4F7AF090728BFA0E80C5055
:1004B00048BF0CC05DF804EB890028BF40F8042B4E
:1004C00008BF704748BF20F8022B11F0804F18BFBB
:1004D00000F8012B70477047704770472DE9F047CF
:1004E0000D4699469246044600F1240801688806A4
:1004F00004D5E06921F01001216000E00120A8424C
:1005000001DD471B00E00027A1697A1902EB090011
:10051000081AA0612078C00602D42046AFF30080FC
:10052000002608E0D4E901211AF806009047206A65
:10053000401C761C20624E45F4DB2078C0060AD5AC
:100540002046AFF3008006E0D4E901213020904737
:10055000206A401C2062381EA7F10107F4DC07E086
:10056000D4E9012118F805009047206A401C206258
:10057000281EA5F10105F3DC2046AFF300802078AA
:10058000000602D50220BDE8F0870120FBE7704796
:100590002DE9FF4F0C461E464FF0FF378BB0D2E9D6
:1005A0000001DDF860800A908A46C1F30A5505B95A
:1005B0003D46002108464FF00000BAF1000F00F45C
:1005C000400005DA00EB80004FF4400101EA5000E2
:1005D0004FEA9059B9F1010F00DDB9460A9850EA87
:1005E0004A000ED044F61050A5F2FF3545432F14B3
:1005F000B8F1000F1ED07542291E1EDDC9F10002A0
:100600001CE0B8F1010F4FF0000001D0302103E0F1
:10061000F24305E02154401CB042FBDB304600228F
:10062000002121540B99C1F80880C1E900200FB0C6
:10063000BDE8F08FBD1B6D1CDEE74A4600DA69425B
:1006400006A800F063FA06AB93E8070003AB83E863
:10065000070050460A9900F044FB8DE80700A0F51A
:1006600000501F3800900398002D0ADD42F21F0150
:100670004A460844002303A90390684600F0ADFDF4
:1006800009E0A0F500504A461F38002303A9039053
:10069000684600F0B7FD8DE807000004000C03D0A9
:1006A0004FF0FF30410800E01046B8F1000F03D0D2
:1006B0000022009215461EE0751E05D400F0A0F938
:1006C000303262556D1EF9D5B3460122084302D07F
:1006D00000227F1C04E02078302801D100227F1EF8
:1006E000002A099784D01DE0112D07DA00F088F95F
:1006F000303262556D1C50EA0102F5D1084302D038
:100700000098C8B10EE00021681E05E0235C625C21
:1007100063542254401E491C8142F7DBAB46A81BA0
:10072000401E0990002004F80B000B98099AC0F8AD
:100730000880C0E9002B7AE711264FF0000857E740
:100740002DE9F04F88460446D21D22F0070191B0F2
:10075000D1E90001CDE90A0104F0EDF802460B9859
:10076000C00F01D02D2007E02068810701D52B2084
:1007700002E0202101EAC000032A099001D0072AE3
:1007800005DB03464146204600F080F90BE1207866
:10079000800601D5E06900E00620B8F1650F8146CA
:1007A00006D0B8F1660F18D0B8F1670F70D131E0FC
:1007B0000020B9F1110F009001DB112301E009F1D4
:1007C00001030AAA01A90CA8FFF7E2FEDDE90C70FB
:1007D000002609F10105834647E001204B460090C1
:1007E0004FF000470AAA01A90CA8FFF7D1FEDDE9E6
:1007F0000DB00C995D46002610B909F101000D18E5
:10080000B9EB050003D4C0F1FF3609F10105A5EBF2
:1008100009002BE0B9F1010F01DA4FF001090020C6
:10082000B9F1110F0090484601DD112300E00346A5
:100830000AAA01A90CA8FFF7ABFEDDE90C704D4632
:1008400000268346207800070AD4AB4500DA5D46CF
:1008500001A8012D04DD411911F8011C302907D030
:100860004F4502DA17F1040F04DA012082460FE047
:100870006D1EEEE7002F02DCED1B3E4403E0781C0A
:10088000A84200DD7D1CB81B00F1010A4FF00047B3
:100890002078000703D4AA4501DB4FF0FF3A00217E
:1008A000B7F1004F0DF143088DF8431024D002201A
:1008B0002B23002F01DA7F422D230A21021EA0F1F3
:1008C000010000DC5FB197FBF1FC97FBF1F201FB4B
:1008D0001C7C17460CF1300C08F801CDEEE7A8F1AE
:1008E000010003702188090501D5452100E065213B
:1008F000A0F1010800F8011C09980FA9A1EB080755
:10090000FF1D00B10120411901EBEA70A1693844D3
:10091000081A401EA0612078C00602D42046AFF31A
:100920000080099828B1D4E901219047206A401C31
:1009300020622078C00622D52046AFF300801EE05A
:10094000002E04DBB34502DD01A8805D00E030200D
:10095000D4E901219047206A401C2062761CAAF14C
:1009600001005FEA000A0AD100F046F8C068016899
:10097000405CD4E901219047206A401C2062281E77
:10098000A5F10105DCDC07E0D4E9012118F8010B31
:100990009047206A401C2062381EA7F10107F3DC53
:1009A0002046AFF30080032011B041E601694A1CE4
:1009B00002610878704700B58FB0CDE901310021A0
:1009C000059105497944CDE9031011466846FFF7C2
:1009D00083FC0FB000BD0000E5FFFFFF0A6802F8CE
:1009E000010B0A607047D1E900239A4202D2531CDE
:1009F0000B6010707047000000487047DC04002056
:100A000030B5B0F10A024FEA900E71F100034EEAE0
:100A1000817EB0EB0E0061EB91014FEA101E4EEAB1
:100A2000017E10EB0E0041EB11114FEA102E4EEA41
:100A3000016E10EB0E0041EB11214FEA104E4EEA11
:100A4000014E10EB0E0041EB1141401841F1000145
:100A50004FEAD00040EA41704FEAD10110EB800527
:100A60004FEA810444EA907444EB01046D1944EBAD
:100A70000404521BA3414FF0000348BF0A3200D5C3
:100A800030BD401C41F1000130BD00002DE9F041B6
:100A90001F46044603260168072A01F4006004DBB0
:100AA00008B116A505E016A503E008B115A500E0FC
:100AB00015A521F010002060A069C01EA0610FB133
:100AC000401EA0612046AFF300804FB1D4E9012160
:100AD00038469047206A401C2062C01C206206E015
:100AE000206AFAE7D4E9012115F8010B9047761E38
:100AF000F8D22046AFF30080BDE8F0814E414E00B1
:100B00006E616E00494E4600696E66002DE9F04741
:100B1000814616468AB0354878440DC88DE80D00E8
:100B200032487844801C03AC0DC884E80D0041F6BF
:100B30009B300844372190FBF1F290FBF1F5A5F1D1
:100B4000800501FB12041B3C02D56442012000E039
:100B50000020DFF898A080460027FA44AAF1BE0AD8
:100B60000EE0E0070AD03246684607EB4701012352
:100B70000AEB810100F046FB8DE8070064107F1C42
:100B8000002CEED1194F7F44AE3F19E0E80715D095
:100B900007EB04100DF1180A90E80E008AE80E0029
:100BA000C068F04201D1981908903246012306A985
:100BB00003A800F027FB03AB83E807006D10641C5B
:100BC000002DE3D14FF0010332466946B8F1000F22
:100BD00003A802D000F001FB01E000F013FBC9E91B
:100BE0000001C9F808200AB0BDE8F0871C530000D6
:100BF00000487047BC0400207546FFF7F9FFAE4679
:100C000005006946534620F00700854618B020B518
:100C1000FFF7FAFABDE820404FF000064FF000075A
:100C20004FF000084FF0000B21F00701AC46ACE894
:100C3000C009ACE8C009ACE8C009ACE8C0098D4601
:100C4000704710B50446AFF300802046BDE8104061
:100C5000FFF7C5BA4FF0013C50F8042B51F8043BA4
:100C60009A4221D1A2EB0C03934313EACC1317D180
:100C700050F8042B51F8043B9A4215D1A2EB0C0317
:100C8000934313EACC130BD150F8042B51F8043BD7
:100C90009A4209D1A2EB0C03934313EACC13DBD0A5
:100CA0004FF00000704700BFD01A01BAB1FA81F1CD
:100CB00001F0180122FA01F0CB40C1F12001DBB2B2
:100CC000C0B2C01A2CFA01F3D11A914311EAC31130
:100CD000E6D1704701491820ABBEFEE726000200AE
:100CE00070475FEA400C08BF91F0000F4FEA8C2379
:100CF0004FEAC12243EA51514FEA1C5018BF00F598
:100D0000F0404FEA300018BF41F000415FEA6C5CF0
:100D100000F02980BCF1FF3F08BF40F080407047E1
:100D2000130C06BF12044FF0100C4FF0000C130E02
:100D300004BF12020CF1080C130F04BF12010CF1D6
:100D4000040C930F04BF92000CF1020CD30F04BFEC
:100D500052000CF1010C11464FF00002A0F11F00EF
:100D6000A0EB0C00704711F0004F08BF704731F046
:100D700000413FF4D5AF0B0C06BF09044FF0100C37
:100D80004FF0000C0B0E04BF09020CF1080C0B0F06
:100D900004BF09010CF1040C8B0F04BF89000CF196
:100DA000020CCB0F04BF49000CF1010CCCF1200365
:100DB000A0EB0C0022FA03F302FA0CF241EA030161
:100DC00000F10100704720F07F4C80EA030023F01F
:100DD0007F47ACEB070303F57C5300F0004003F1C1
:100DE000FF032DE980494FEA154B09B44FEA14433C
:100DF00025EA0B4E24EA03480FF2042606EB1327DC
:100E000049083E785FEA320203FB0667C7F5000730
:100E100007FB06F64FEA54374FEAD64606F10206BC
:100E200007FB066CCCF1005C4FEA1C472CEA074C30
:100E300007FB06F40CFB06F504EB15464FEA961685
:100E400034BF00204FF000404FEAD13706FB07FCCB
:100E50004FEA1C4C0CFB0BF7D21B03FB0CF761EBAE
:100E600007010CFB0EF7B0EB074072EB17420CFBCF
:100E700008F734BFA2EB0742B2EB074261EB174120
:100E80004FEA0C444FEA910706FB07FC4FEA1C4C63
:100E90000CFB0BF7B0EBC74072EB573203FB0CF7C0
:100EA00034BFA2EBC742B2EBC74261EB57310CFB38
:100EB0000EF7B0EBC70072EB57720CFB08F734BFAC
:100EC000A2EBC702B2EBC70261EB5771039F4FEA77
:100ED000816141EA921104EBCC044FEAD1374FEA29
:100EE000826206FB07FC42EA90124FEA80604FEAFA
:100EF0001C4C0CFB0BF7D21B03FB0CF761EB07013F
:100F00000CFB0EF7B0EB074072EB17420CFB08F737
:100F100034BFA2EB0742B2EB074261EB17414FEA45
:100F20008C554FEA910704EB9C2406FB07FC4FEA23
:100F30001C4C0CFB0BF7B0EBC74072EB573203FBBA
:100F40000CF734BFA2EBC742B2EBC74261EB57319B
:100F50000CFB0EF7B0EBC70072EB57720CFB08F7F7
:100F600034BFA2EBC702B2EBC70261EB577115EBBE
:100F70004C254FEA816141EA92114FEA82624FEAC1
:100F8000D13742EA901206FB07FC44F100044FEA15
:100F900080604FEA1C4C0CFB0BF7D21B03FB0CF7D9
:100FA00061EB07010CFB0EF7B0EB074072EB174249
:100FB0000CFB08F734BFA2EB0742B2EB074261EB30
:100FC000174115EB1C154FEA813141EA92414FEA76
:100FD000823242EA90424FEA80304FEA0C7644F186
:100FE000000448EA03434EEA0B484FF0000EB2EB10
:100FF000080C71EB030724BF624639464EEB0E0E18
:101000004FF0000B0018524149414BEB0B0BB2EB78
:10101000080C71EB03077BF1000B24BF62463946D5
:101020004EEB0E0E4FF0000B0018524149414BEBB6
:101030000B0BB2EB080C71EB03077BF1000B24BF29
:10104000624639464EEB0E0E51EA020718BF46F0D3
:10105000010616EB0E7655F1000254F1000103D59E
:10106000BDE88901BDE80088BDE88901BDE8004808
:10107000B619524141EB0101A3F101037047808091
:101080007F7E7D7C7B7A79787776767574737271E2
:1010900071706F6E6E6D6C6C6B6A6A69686867669A
:1010A00066656464636362616160605F5F5E5E5D2C
:1010B0005D5C5C5B5B5A5A595958585757565655A0
:1010C00055555454535352525251515050504F4F02
:1010D0004F4E4E4D4D4D4C4C4C4B4B4B4A4A4A4952
:1010E0004949484848474747474646464545454495
:1010F0004444444343434342424242414141002B22
:101100009C4630D477002BD01CB54FEA370703B488
:101110004FF010004FF01001BAF1000F06D0BCF1F3
:10112000000FDCBF40F0080040F008014FF0000065
:101130000FBCBDE810400BF1010BBBF1010F08BF64
:101140005FEA170722BF12F1010211F101014FF00E
:10115000004143F1000300F0004043EA0000704703
:10116000F9D35708D0E746EA064613F1400F4FEA95
:1011700016461FDD13F1200FDFBF16430A4600217C
:1011800020335B42BED0C3F1200746EA064602FA8E
:1011900007F74FEA164646EA0706C3F1200722FA88
:1011A00003F201FA07F721FA03F14FF0000342EAD4
:1011B0000702A7E746EA020646EA06464FEA16464F
:1011C00046EA0106BCBF46EA0646360C4FF000036D
:1011D0004FF000024FF0000194E72DE9804C9A4651
:1011E000934670B491E8380007C831EA400C48BF14
:1011F00034EA430C03D5FFF7E6FDFFF780FFF0BCB0
:10120000BDE8008C2DE9804C9A46934670B491E875
:10121000380007C810F0804F08BF13F0804F03D18B
:1012200000F005F8FFF76BFFF0BCBDE8008C20F084
:101230007F4780EA030023F07F4C07EB0C03A3F504
:101240007C5300F00040A3F1FE0392F0000F00F089
:10125000B38095F0000F00F077802DE901494FEA47
:1012600011404FEA144621EA004800FB06FC24EA3C
:10127000064708FB06F607FB08F800FB07F718EB24
:1012800006484CEB164C4FEA124B18EB07484FEA56
:1012900015464CEB174022EA0B4E0BFB06FC25EAE9
:1012A00006470EFB06F607FB0EFE0BFB07F71EEBD1
:1012B000064E4CEB164C4FF000061EEB074E4CEB67
:1012C000174B18EB0B0840F1000018EB0E0B58EB16
:1012D000000840F100008F1A4FF000013CBFC943E5
:1012E000661B14BFB5EB040C00213CBFC943F61BC1
:1012F0004FEA17444EEA8E0E27EA04454FEA1C4790
:1013000004FB07622CEA074C05FB07F70CFB05F60C
:1013100004FB0CFC16EB074642EB174216EB0C469F
:1013200042EB1C421BEB060658EB0202414146EA27
:101330009E0601D5BDE80189B619524141EB010174
:10134000A3F10103BDE801894FEA14454FEA1147B3
:1013500024EA054621EA074C05FB07F406FB07F7DC
:101360000CFB06F105FB0CFC11EB074144EB1744A9
:101370004FEA124711EB0C4144EB1C4422EA074CA4
:1013800005FB07F206FB07F70CFB06F605FB0CFC5A
:1013900016EB074642EB174216EB0C4642EB1C4598
:1013A0006A1854F1000148BF7047B619524141EB29
:1013B0000101A3F10103704795F0000F37D04FEA08
:1013C00011424FEA144721EA024624EA074C02FB85
:1013D00007F106FB07F70CFB06F402FB0CFC14EB11
:1013E000074441EB17414FEA154714EB0C4441EB1E
:1013F0001C4125EA074C02FB07F506FB07F70CFB2F
:1014000006F602FB0CFC16EB074645EB174516EB00
:101410000C4645EB1C42121951F1000148BF7047C0
:10142000B619524141EB0101A3F1010370474FEAA4
:1014300014454FEA114724EA054621EA074C05FB0B
:1014400007F106FB07F70CFB06F24FF0000605FB61
:101450000CFC12EB074241EB174112EB0C4251EB33
:101460001C4148BF7047921841EB0101A3F10103F1
:101470007047000070B50024074D26463C2155F802
:10148000240002F0CFF855F8240000684662641C7E
:10149000E4B2062CF2D370BD0C0000202DE9F05F01
:1014A000DFF8D0A000243348183850F82400016831
:1014B000486A00224A6204F023F92F4E314604F0B4
:1014C0004BF92E4F394604F03DF82D4D55F82410B8
:1014D00003F0D0FF45F8240055F82410A5F11800BA
:1014E00050F8240004F004FA394604F035F9314686
:1014F00004F028F804F0E8F8064604F001F904EBDB
:1015000084090AEB89058346E96803F0B3FF804646
:10151000E8602869301A04F0F3F8A96804F01CF9AF
:1015200007464146686804F017F9804658465AF85D
:10153000291004F011F9414603F09CFF394603F0ED
:1015400099FF10492E61884202DC0F49884200D978
:10155000084604F0B9F802B206481E38015D801F43
:10156000005D03F0F1FA641CE4B2062C9BD3BDE8E5
:10157000F09F0000240000200000B44300F338472F
:101580000801002000004844000048C4FEE70000B5
:101590002DE9F05F044663480D46014401204FF4F5
:1015A0008003DFF88491861E604F4FF0804B994294
:1015B0001AD20021C2E90010284603F02FFF884606
:1015C000054600224B4603F041FD00225B4603F036
:1015D0003BFE03F001FB206028464146324604F002
:1015E00030FA00223B4622E051494FF0807C05EB67
:1015F00001080221DFF83CA1E0451ED2C2E900014A
:10160000284603F00BFF0F46054600224B4603F029
:101610001DFD0022534603F017FE03F0DDFA2060A3
:1016200028463946324604F00CFA00225B4603F0A5
:1016300005FB74E06060BDE8F09F05F1FF48032002
:10164000B8F17C5F10D8C2E900104FF03F41284646
:1016500004F082F82060284603F0E0FE324604F0F1
:10166000F0F900225346E2E7042115F1FF4F17D2AB
:10167000B5F17E5F14DAC2E90001284603F0CEFE20
:1016800000224B4603F0E2FC0022534603F0D6FA58
:1016900003F0A2FA20603146284604F000FAC9E7B8
:1016A000A5F17E580520E04519D2C2E90010284670
:1016B00003F0B4FE0F46054600224B4603F0C6FC7D
:1016C00000225B4603F0BAFA03F086FA206028464F
:1016D0003946324604F0B5F9002253461DE0A5F123
:1016E00081419942A7D8106006205060284603F037
:1016F00095FE8846054600224B4603F0A7FC0022D3
:101700003B4603F09BFA03F067FA20602846414607
:10171000324604F096F900225B4603F095FD03F093
:101720005BFA87E7FFFF7F3F0000E0BF0000084053
:10173000FFFF7F400000F03F044805490068B0FB10
:10174000F1F004494968B1FBF0F07047EC0000206B
:1017500040420F00001000E00648016841F080712F
:101760000160054800214160016841F0010101600C
:1017700070470000FCED00E0001000E07047000042
:1017800010B5402000F0D4FC05480168490605D595
:1017900040210160BDE8104002F01EBB10BD0000FA
:1017A0001404014072B6FEE72DE9F04F95B00546EE
:1017B000002010900B900F900C9001900D900E90C7
:1017C0000290059006900FAA284602F00BFB0DAA86
:1017D0000BA80F99FFF7DCFE01AA05A81099FFF7E7
:1017E000D7FE0E98544EC0EBC009029806EB890450
:1017F00054F82010069803F0AFFF019F804654F87C
:101800002710059C204603F0A7FF414603F032FE57
:101810000C9903F0A1FF82460D98C0EBC008029816
:1018200006EB880656F82010069803F095FF8346CD
:1018300056F82710204603F08FFF594603F01AFE92
:101840000B9E314603F088FF514603F013FE3A49E0
:101850008246C43101EB890B029906985BF821108E
:1018600003F07AFF07905BF82710204603F074FF1F
:10187000079903F0FFFD0C9903F06EFF2E49834694
:10188000C43101EB88000299089050F821100698A5
:1018900003F062FF0790089850F82710204603F0E5
:1018A0005BFF079903F0E6FD314603F055FF59460B
:1018B00003F0E0FD2149834601EB8909029906986E
:1018C00059F8211003F048FF079059F827102046D7
:1018D00003F042FF079903F0CDFD0C9903F03CFFA4
:1018E0001649814601EB88080299069858F821109C
:1018F00003F032FF099058F82710204603F02CFF20
:10190000099903F0B7FD314603F026FF494603F07D
:10191000B1FD04465146286A03F01EFF686059462F
:10192000686A03F019FFA8602146A86A03F014FF53
:10193000E86015B0BDE8F08F445B0008CC5C00089F
:1019400070B50A4C0D461146206003F0D1FF2061AE
:101950004FF07E50206260620548A0610020E06187
:1019600029462046BDE87040FFF71EBFB4000020A6
:101970000000FA4590F82020012A07D0022A05D05D
:10198000416A41F480214162012070470068426948
:101990000A43426100207047F0B590F82050046877
:1019A000A468012D05D0022D03D0416A41F48021A5
:1019B00057E014F0406F01D1E5004FD5C4F3016446
:1019C0000125A5401D608D684FF4C0739DB1CE68A0
:1019D00035434E6845EAC605066803EB0417F55122
:1019E0004FF4C275076805EB04150E697E51097D39
:1019F000012905D009E00E88CD6845EA4655EBE798
:101A000001684E5946F480764E511179D579567950
:101A100041EA056195792D0445EA062529434FF4ED
:101A2000C676056806EB0416A9511178D57841EA07
:101A30000561957852782D0445EA022211434FF44E
:101A4000C475026805EB04155151006803EB0411DD
:101A5000425842F0010242500020F0BD416A41F478
:101A6000001141620120F0BD10B590F820300268ED
:101A7000012B07D0022B05D0416A41F4802141623D
:101A8000012010BDD2F8000240F00100C2F80002AF
:101A9000087D00F01F0301209840D2F81C328343D8
:101AA000C2F81C32CB69B3B9D2F80C328343C2F806
:101AB0000C328C894B6864F31F434C6902EBC404FD
:101AC000C4F840320C890B6864F31F434C6902EB85
:101AD000C404C4F84432CB69012B16D1D2F80C32BD
:101AE0000343C2F80C320C884B6864F31F434C6903
:101AF00002EBC404C4F840320C89CB6864F31F4382
:101B00004C6902EBC404C4F844328B69002BD2F850
:101B100004320FD053EA0003C2F804320B69002BE1
:101B2000D2F8143208D00343C2F81432096A0129EA
:101B300004D008E08343EFE78343F5E7D2F81C12B3
:101B40000143C2F81C12D2F8000220F00100C2F8D2
:101B50000002002010BD10B5044600F00BF840074D
:101B600007D5204600F098FA2046BDE8104000F066
:101B700067BA10BD406A704770B590F82040012CDC
:101B800005D0022C03D0416A41F4802128E004688A
:101B900009B32469A40720D04FF4D874056804EB76
:101BA00001142D5915F00405956005682D591AD0BA
:101BB000ED08556005682C5904F00204D4604FF418
:101BC000DA74056804EB01142E5906F00F06082E8E
:101BD0000CD308250DE0E468DCE7416A41F400110C
:101BE0004162012070BD6D0D1560E3E72D5905F0D0
:101BF0000F05156105682D59C5F307259561056821
:101C00002C59240C54614FF4DC72046802EB01126D
:101C1000A4581C700468A458240A5C700468A45872
:101C2000240C9C700468A258120EDA704FF4DE7215
:101C3000046802EB0112A4581C710468A458240A19
:101C40005C710468A458240C9C710468A258120E9C
:101C5000DA71006829B1016941F0200101610020B9
:101C600070BDC16841F02001C160F8E72DE9F05F67
:101C70000546006800244669D0F804908768D0F8CB
:101C80000CB0D0F810A0D0F81880F10748D0F907B0
:101C900014D001218160B80703D5284600F02DFA41
:101CA0000CE0780702D54FF4006407E0380702D54E
:101CB0004FF4805402E0284600F01EFAF80516D5CD
:101CC00029684FF480708860B80503D5284600F075
:101CD00016FA0CE0780502D544F4005407E0380504
:101CE00002D544F4804402E0284600F007FAF803E5
:101CF00016D529684FF480308860B80303D528468C
:101D000000F0FFF90CE0780302D544F4004407E04A
:101D1000380302D544F4803402E0284600F0F0F99C
:101D2000300707D55FEACB6004D52968102044F45A
:101D30000074C86070074FF0080707D55FEA0B70A2
:101D400004D52868C760284600F064F9B00706D5B6
:101D50002868C068800702D0284600F05DF9700648
:101D600007D55FEACA6004D52968102044F480646E
:101D70000861B00607D55FEA0A7004D528680761D4
:101D8000284600F059F9F00606D528680069800752
:101D900002D0284600F051F9B00308D55FEAC960C7
:101DA00005D5296810204860284600F047F9F0035F
:101DB00007D55FEA097004D528684760284600F017
:101DC000A1F9300446D55FEA497040D5F00504D545
:101DD0005FEAC87001D044F00104B00504D55FEAA1
:101DE000887001D544F00204700504D55FEA48709C
:101DF00001D544F00404300529D518F0700F26D021
:101E000008F07000402815D006DC102809D02028E2
:101E10000AD0302816D10AE050280ED0602811D1FF
:101E20000EE044F008040DE044F010040AE044F031
:101E3000200407E044F0400404E044F0800401E0A2
:101E400044F480742868816921F0700181612968F7
:101E500004204860002C05D0686A20436862284648
:101E6000FFF779FEBDE8F09F70B5040003D094F849
:101E7000200010B104E0012070BD204600F082F87F
:101E80002068016841F00101016000F067FA054631
:101E9000052604E000F062FA401B0A2811D82068E9
:101EA0004068C007F6D02068016821F00201016097
:101EB00000F054FA05460BE000F050FA401B0A28E7
:101EC00006D9606A40F40030606284F82060D2E78E
:101ED000206840688007EFD4207E012820680168D0
:101EE0003DD021F080010160607E012820680168FA
:101EF00038D021F040010160A07E012820680168EF
:101F000033D021F020010160E07E012820680168C3
:101F10002ED041F010010160207F01282068016867
:101F200029D021F008010160607F01282068016844
:101F300024D021F004010160D4E902010843D4E96E
:101F40000412114308436168491E08432168C861AF
:101F500000206062012084F82000002070BD41F064
:101F60008001C0E741F04001C5E741F02001CAE728
:101F700021F01001CFE741F00801D4E741F004015E
:101F8000D9E7000010B586B00021009101910291BF
:101F9000039100681B49884231D11B48C16941F057
:101FA0000071C161C16901F000710491816941F062
:101FB000200181618069154C00F02000049001200F
:101FC00000906946204600F0BFF8022103200091EE
:101FD000019103906946204600F0B6F80C4841682C
:101FE00021F4C04141F0E06141F4C0414160002270
:101FF0001146142000F0FAFC142000F0E9FC06B0B1
:1020000010BD0000006400400010024000140140B8
:10201000000001407047000010B5054B054A002143
:10202000FFF7AAFD024901200839087010BD000021
:10203000A40000203801002070477047704700005E
:1020400070B5044690F82000012804D0606A40F47E
:102050000020606218E0022084F8200020680168F7
:1020600021F00101016000F079F905460EE000BFA2
:1020700000F074F9401B0A2808D9606A40F4003067
:102080006062052084F82000012070BD206840684F
:10209000C007EDD1606270BD70B5044690F82000B5
:1020A000022804D0606A40F48010606214E0206866
:1020B000016841F00101016000F050F905460DE0B2
:1020C00000F04CF9401B0A2808D9606A40F400303F
:1020D0006062052084F82000012070BD20684068FF
:1020E000C007EDD02068016821F0020101600120E5
:1020F00084F82000002070BD70477047704770471B
:10210000704770477047000070B5044600F026F92C
:102110000546601C02D004480078044400F01EF913
:10212000401BA042FAD370BDE000002070470000C1
:10213000044910B50A68024202D00860FFF7F6FFB2
:1021400010BD0000140401402DE9F84FDFF8C891DC
:102150000024A9F1040B23460F2709F1040AABF16F
:10216000040ED1E00125A54006EA0502AA4276D177
:10217000DFF8A8C14E68A6EB0C0866452BD00DDC35
:10218000032E34D005DC36B3012E19D0022E2FD108
:102190001BE0112E16D0122E2AD119E0B8F5881F97
:1021A00019D006DCB8F5803F15D0B8F5801F1FD1D7
:1021B00011E0B8F5001F0ED0B8F5041F18D10AE0E1
:1021C000CB6815E0CB681B1D12E0CB6808330FE02D
:1021D000CB680C330CE08B682BB1012B4FF008035C
:1021E00003D0456104E0042302E0056100E0002320
:1021F000FF2A01D8064601E000F104064FEA8405F3
:1022000001D9A5F12005D6F8008007FA05FC28EAD7
:102210000C0803FA05F548EA0508C6F800804D6881
:10222000ED0070D53E4DAE6946F00106AE61AD6978
:1022300024F0030605F0010500953A4D06EB050C68
:10224000DCF80850A607360F07FA06F825EA080555
:10225000DFF8D480404503D14FF0000825E052E07C
:10226000DFF8C880404502D14FF001081DE0DFF8DB
:10227000C080404502D14FF0020816E0DFF8B4807C
:10228000404502D14FF003080FE0DFF8AC80404535
:1022900002D14FF0040808E0DFF8A080404502D1E9
:1022A0004FF0050801E04FF0060808FA06F848EA82
:1022B0000508CCF808804D68D9F80060ED024D465D
:1022C00001D5164300E096432E604D68DAF80060B1
:1022D000AD02554601D5164300E096432E604D6889
:1022E000DBF80060AD035D4601D5164300E0964380
:1022F0002E604D68DEF80060ED03754601D516438B
:1023000000E096432E60641C0A681646E2407FF4A3
:1023100029AFBDE8F88F000008040140000011104B
:10232000001002400000014000080140000C014084
:10233000001001400014014000180140001C014041
:10234000C26821EA02030A4043EA02410161704780
:102350000AB1016170470904FBE700000148806889
:1023600070470000E000002070B5040025D094F80C
:102370003D00002520B984F83C50204600F07CFA4E
:10238000242084F83D002068016821F001010160EB
:102390002068016841F4004101602068016821F46F
:1023A0000041016000F0EAFB4D4A6168914201D8AA
:1023B0004C4900E04C49884201D2012070BD4B4994
:1023C0002368B0FBF1F15E6826F03F060E435E60C5
:1023D0006368934206D94FF4967359434FF47A7366
:1023E000B1FBF3F12368491C1E6A26F03F06314316
:1023F00019626168914210D84900401EB0FBF1F2A9
:10240000521CC2F30B02042A01D2042022E0B0FBCA
:10241000F1F0401CC0F30B001CE0A268F2B301EB2A
:10242000C10303EB0116431EB3FBF6F35B1C43F43D
:1024300080431B0549D092B301EBC10202EB0111AD
:10244000401EB0FBF1F0401CC0F30B0040F4804094
:1024500040F400402168CA694CF6FF739A43104368
:10246000C861D4E9071001432068026822F0C00265
:1024700011430160D4E9030101432068826848F2F6
:10248000FF339A4311438160D4E905010843216871
:10249000CA6822F0FF021043C86001E00EE016E0B7
:1024A0002068016841F0010101602564202084F862
:1024B0003D00256384F83E50002070BD01EB4106CD
:1024C000431EB3FBF6F35B1CB3E70120C2E701EB4D
:1024D0004101401EB0FBF1F0401CC0F30B00B7E718
:1024E000A086010080841E0000093D0040420F00CC
:1024F0002DE9F84F1F4690468A460446DDF828909D
:10250000FFF72CFF054694F83D0020287FD11923C2
:10251000012240492046009501F054FB002876D165
:1025200094F83C00012872D0012084F83C00206817
:102530000168C90703D1016841F001010160206809
:10254000016821F400610160212084F83D00102021
:1025500084F83E0000262664C4F824806785608DD8
:1025600020852D48E0622B464A465146204601F020
:1025700031FA90B9206841698069009036E02A46B6
:102580004946204601F0FCFB50B1206C042804D1E0
:102590002068016841F4007101600120BDE8F88FF6
:1025A000606A216800780861606A401C6062618D21
:1025B000491E6185218D491E89B221852268536992
:1025C000DB435B070BD451B100781061606A401C9B
:1025D0006062608D401E6085208D401E20852A46E9
:1025E0004946204601F0C2FA0028CED1208D0028AD
:1025F000C5D154F83D0B016841F400710160202001
:1026000004F81E09E67766770020C7E7FFE7022097
:10261000C4E70000020010000000FFFF2DE9FF4F9B
:1026200083B00025DDE910799A4693460446DDF82B
:1026300048800095FFF792FE064694F83D0020285A
:102640007CD11923012288492046009601F0BAFA6C
:102650000028F5D194F83C0001286FD0012084F8BF
:102660003C0020680168C90703D1016841F00101FD
:1026700001602068016821F400610160222084F873
:102680003D00402084F83E0025646762A4F82A904B
:10269000608D20857548E062CDE9008653465A4634
:1026A0002046049901F0E4F900287CD1208DDFF860
:1026B000C091202768B1012814D002282068016841
:1026C0001ED041F4806101602068416980690090FA
:1026D000BCE02068416981690091016841F40071A2
:1026E0000160B3E02068016821F48061016072B686
:1026F0002068416981690091016841F400710AE034
:1027000041F40061016072B62068416981690091FD
:10271000016821F48061016062B697E0032865D802
:1027200001280CD0022843464FF0000249462046BB
:1027300000960BD001F046FAA8BB0CE091E03246BF
:102740004146204601F0E4FA68BB72E001F03AFA33
:1027500048BB72B633E02068016821F480610160F3
:1027600072B620680069616A0870606A401C606225
:10277000208D401E2085608D401E60853D4846F2BC
:10278000A8110068B0FBF1F0C0EBC00000EB8000C6
:102790000090401E009007D020684069C043400769
:1027A0000DD50098F5E727E044F8305F6773A5730F
:1027B000206940F02000206162B625731CE020688B
:1027C000016841F40071016020680069616A087065
:1027D000606A401C6062218D491E2185618D491E01
:1027E000618562B621680969017026E0324641467A
:1027F000204601F08DFA18B1012007B0BDE8F08F36
:1028000020680069616A0870606A401C6062208DFF
:10281000401E81B22185608D401E6085206842691E
:10282000D243520712D4032903D1016821F48061F5
:10283000016020680069616A0870606A401C60621B
:10284000208D401E2085608D401E6085208D0028D3
:102850007FF464AF84F83D7084F83E5084F83C50B7
:10286000CBE70220C9E70000020010000000FFFFD4
:1028700004000100EC00002030B585B0002100917B
:10288000019102910391214D0368214C12210322F1
:102890002048AB421DD1A36943F00803A361A3699B
:1028A000039203F0080304931302CDE90031694653
:1028B000FFF74AFC1848416841F0E06141F002012D
:1028C0004160E06940F40010E061E06900F400104C
:1028D00019E0124DAB4217D1A36943F00803A3617D
:1028E000A369039203F0080304934FF44063CDE916
:1028F00000316946FFF728FCE06940F48000E061A0
:10290000E06900F48000049005B030BD0054004040
:1029100000100240000C014000000140005800403F
:10292000024881680278114481607047E00000200D
:10293000074810B5016841F010010160032000F064
:1029400075F80F2000F006F800F024F8002010BD04
:102950000020024070B50D4D04464FF47A7128787E
:10296000B1FBF0F00A490968B1FBF0F000F068FC37
:1029700048B9102C07D200222146501E00F036F82C
:1029800000206C6070BD012070BD0000E0000020E0
:10299000EC0000200C4808B5816941F0010181611B
:1029A000816901F001010091C16941F08051C1616B
:1029B000C06900F0805000900448416821F0E06157
:1029C00041F00071416008BD00100240000001406C
:1029D000002809DB00F01F0201219140400980001E
:1029E00000F1E020C0F8001170470000F0B40E4B79
:1029F0001B680C46C3F30223C3F10705042D00D95D
:102A00000425191D072901D2002300E0DB1E012641
:102A100006FA05F1491E214099409E40761E164057
:102A20003143F0BC01F09BBF0CED00E0064900F023
:102A3000070208684FF6FF03184040EA0220034AE5
:102A400010430860704700000CED00E00000FA053C
:102A50002DE9F0470F46050061D0434E306800F085
:102A60000700B84209D2306820F0070038433060D0
:102A7000306800F00700B84251D128683B4C81070C
:102A800012D5400703D5606840F4E06060602878A4
:102A9000000703D5606840F4605060606068A96812
:102AA00020F0F000084360602878C00728D06868EC
:102AB000012810D02168022810D0890700292EDAB9
:102AC000616821F0030101436160FFF747FC804624
:102AD00041F288390DE021688903EFE78901EDE7CC
:102AE000FFF73CFCA0EB0801494502D90320BDE8F3
:102AF000F0876068696800F00C00B0EB810FEFD1DF
:102B0000306800F00700B8420BD9306820F00700A9
:102B100038433060306800F00700B84201D001202F
:102B2000E5E72878400705D56068E96820F4E060AB
:102B3000084360602878000706D56068296920F49A
:102B4000605040EAC100606000F038F86168084AEF
:102B5000C1F30311515CC84006490860064800688B
:102B6000FFF7F8FE0020C2E70020024000100240FC
:102B7000A25D0008EC000020E400002004480549A4
:102B800000684968044AC1F30221515CC84070479B
:102B9000EC00002000100240B25D00080448054926
:102BA00000684968044AC1F3C221515CC8407047BB
:102BB000EC00002000100240B25D00080E4A51688F
:102BC0000E4801F00C03042B11D0082B0FD10C4838
:102BD000C1F38343C903C05C0AD55168084AC1F3F5
:102BE0004041921E515C054A5043B0FBF1F07047E2
:102BF00004494843704700000010024000127A0068
:102C0000925D000800093D002DE9F84F040070D0E6
:102C10002078C04DC00749D06868C0F38100012802
:102C200007D06868C0F38100022809D16868C00332
:102C300006D52868800339D560680028E7D035E0DC
:102C40006068B0F5803F0BD010B1B0F5A02F11D067
:102C5000286820F480302860286820F4802002E072
:102C6000286840F480302860606890B1FFF776FBF8
:102C700006460AE0286840F480202860F0E700BF9C
:102C8000FFF76CFB801B642873D828688003F7D596
:102C90000CE0FFF763FB064605E000BFFFF75EFBB5
:102CA000801B6428F0D828688003F7D420789A4ED7
:102CB00080074FF001094FF0000839D5686810F01F
:102CC0000C0F07D06868C0F38100022809D168683A
:102CD000C00306D42868800714D52069012808D1CC
:102CE00010E02069B0B1C6F80090FFF737FB074647
:102CF00005E00AE1FFF732FBC01B0228C4D82868B0
:102D00008007F7D52868616920F0F80040EAC10023
:102D100028600DE0C6F80080FFF720FB074604E0BE
:102D2000FFF71CFBC01B022823D828688007F7D4B4
:102D3000207800072CD57948A169D9B1C0F8009056
:102D4000FFF70CFB074604E0FFF708FBC01B022857
:102D50000FD8686A8007F7D571484FF4FA510068B8
:102D6000B0FBF1F0009000BF0098411E0091FAD234
:102D70000EE080E0C0F80080FFF7F0FA074604E0BC
:102D8000FFF7ECFAC01B022875D8686A8007F7D4F1
:102D90002078400760D5E8690027C00008D4E869BA
:102DA00040F08050E861E869012700F08050009011
:102DB0005C480168C90513D40168834641F48071F9
:102DC0000160FFF7CBFA824606E000BFFFF7C6FAC4
:102DD000A0EB0A0064284ED8DBF80000C005F5D54A
:102DE000E06801280AD008B1052813D0286A20F02D
:102DF00001002862286A20F0040002E0286A40F0FE
:102E000001002862E06841F2883B98B1FFF7A6FA1A
:102E100082460BE0286A40F004002862EEE700BF1B
:102E2000FFF79CFAA0EB0A0159455AD8286A800797
:102E3000F6D50CE0FFF792FA824605E0FFF78EFA2E
:102E4000A0EB0A0159454CD8286A8007F6D41FB177
:102E5000E86920F08050E861E06988B36968C1F3EF
:102E60008101022944D00228C6F8608004D0FFF70F
:102E700075FA044638E034E0FFF770FA074604E0DC
:102E8000FFF76CFAC01B02282BD828688001F7D402
:102E9000206AB0F5803F05D16868A16820F4003051
:102EA00008436860D4E908010843696821F4741193
:102EB00008436860C6F86090FFF750FA044606E0E1
:102EC00025E000BFFFF74AFA001B022809D828684E
:102ED0008001F7D51BE000BFFFF740FA001B022876
:102EE00002D90320BDE8F88F28688001F4D40EE0F1
:102EF0000128F7D06868226A00F48031914204D139
:102F0000616A00F47010884201D00120EAE70020D5
:102F1000E8E7000000100240000042428004424204
:102F2000EC0000200070004070B5040009D0606A19
:102F3000002540B125616561A56294F8510040B15A
:102F40000CE0012070BD6068B0F5827FF4D0E561CF
:102F5000F2E784F85050204600F040F8022084F850
:102F600051002068016821F040010160A08821899A
:102F700000F4827001F404410843A18901F4006166
:102F80000843217C01F002010843217D01F0010189
:102F90000843218B01F400710843217F01F03801BF
:102FA000084394F8201001F080010843218D01F4BA
:102FB0000051084321680860A069042101EA10401B
:102FC000216848602068C16921F40061C1616565BC
:102FD000012084F85100002070BD000030B585B09C
:102FE00000240094019402940394006815498842D7
:102FF00025D11548C16941F48041C161C16901F41D
:1030000080410491816941F00801816180690F4D1F
:1030100000F0080004904FF420400090022001903E
:103020000320039069462846FFF78EF84FF480404E
:10303000CDE90004694628460294FFF785F805B0FB
:1030400030BD00000038004000100240000C01407C
:103050002DE9FF4F81B01D46934604464FF001090C
:103060000E9EFFF77BF9074694F85100616801282E
:1030700006D0B1F5827F3CD1A168C9BB042838D104
:103080000298002871D0BBF1000FFBD0002DF9D0C1
:1030900094F8500001282CD04FF0010A84F850A079
:1030A00094F85100042802D0052084F851004FF014
:1030B0000008C4F85480C4F838B0E587A5870299A1
:1030C0002163E586A586C4F84080C4F84480206862
:1030D0000168490603D4016841F040010160E068DD
:1030E000B0F5006F606808D0F0B3012D49D081E0E1
:1030F000FFE7022005B0BDE8F08F08B1012D39D1FE
:10310000206B21680088C860206B801C2063E08EE3
:10311000401EE0862EE02068816889070FD5E18E89
:1031200069B1B9F1010F0AD1216B0988C160206B27
:10313000801C2063E08E401EE0864FF0000920686E
:103140008168C9070CD0E18F51B1C068A16B0880BC
:10315000A06B801CA063E08F401EE0874FF0010948
:10316000FFF7FCF8C01B01E00BE067E0B04201D3C1
:10317000701C50D1E08E0028CDD1E08F0028CAD13C
:103180003EE0206B216800780873206B401C2063B0
:10319000E08E401EE0862DE02068816889070FD50B
:1031A000E18E69B1B9F1010F0AD1216B0978017380
:1031B000206B401C2063E08E401EE0864FF000092B
:1031C00020688168C9070CD0E18F51B1C068A16B3C
:1031D0000870A06B401CA063E08F401EE0874FF09A
:1031E0000109FFF7BBF8C01BB04202D3701C01D02D
:1031F00011E086B1E08E0028CED1E08F0028CBD13F
:103200003A463146204601F0DEF850B12020606594
:1032100084F8508012E084F851A084F85080032094
:1032200068E7A06818B92068C1688068009084F8D1
:1032300051A084F85080606D0028F1D0012059E73A
:1032400010B5401EB0F1807F01D3012010BD4FF0BA
:10325000E02460610F21601701F081FB0020A06174
:1032600007202061002010BD7047704770B590F8AE
:103270003C20012A2CD0012480F83C40022280F816
:103280003D2003685A689D6822F070060A68324340
:103290005A60104B02689A420ED00F4B9A420BD0E4
:1032A000B2F1804F08D00D4B9A4205D00C4B9A4298
:1032B00002D00C4B9A4204D1496825F0800319438F
:1032C000916080F83D40002180F83C10084670BDB8
:1032D000022070BD002C0140003401400004004079
:1032E00000080040000C004010B5040003D094F822
:1032F0003D0010B107E0012010BD002084F83C0023
:10330000204600F01FF8022084F83D00211D2068AF
:1033100001F0F2F9012084F8460084F83E0084F8B8
:103320003F0084F8400084F8410084F8420084F8AB
:10333000430084F8440084F8450084F83D000020F0
:1033400010BD000008B500680B49884212D10B4837
:10335000C16941F01001C161C069002200F0100094
:10336000009011463620FFF741FBBDE808403620AB
:10337000FFF72EBB08BD0000001000400010024007
:1033800090F83D10012901D001207047022180F8FA
:103390003D100168CA6842F00102CA6000680E4927
:1033A00088420ED00D4988420BD0B0F1804F08D032
:1033B0000B49884205D00B49884202D00A4988420D
:1033C00004D1816801F00701062903D0016841F0AA
:1033D0000101016000207047002C014000340140D1
:1033E0000004004000080040000C00402DE9F041BE
:1033F0000D46040003D094F83D0018B108E0012008
:10340000BDE8F081002084F83C00204600F040F840
:10341000022084F83D002068816844F2070291434D
:103420008160211D206801F067F922689068916928
:10343000166A2B68AF69034340F20330814341EAC7
:103440000721A868EF6908434FF6FC418843E96803
:1034500040EA0720014328692F6A000140EA07304B
:10346000084369686D6926F0220646EA0515294376
:1034700093602268906154F8460B0162012004F8C1
:103480001F09E0752076E0762077A0750020B7E769
:1034900030B585B000240094019402940394006830
:1034A000564B5749574A984212D1886940F40060F8
:1034B0008861886900F400600490886940F0040025
:1034C0008861886900F0040004904FF440707BE04C
:1034D0004D4DB0F1804F1BD04C4CC023A04248D181
:1034E000C86940F00200C861C86900F00200049099
:1034F000886940F0040088618869009300F0040046
:10350000049069464FEA0200FEF71EFE05B030BD8A
:10351000C86940F00100C861C86900F0010004906A
:10352000886940F004008861886900F00400049014
:10353000886940F0080088618869694600F00800E1
:1035400004904FF4004000901046FEF7FDFD082067
:10355000CDE90004694628460294FEF7F5FD2C48A3
:10356000416821F4407141F0E06141F480714160B3
:10357000CCE7284CA04213D1C86940F00400C861D0
:10358000C86900F004000490886940F00800886170
:103590008869694600F00800049000932846B3E764
:1035A0001D4CA04212D1C86940F00800C861C8692A
:1035B00000F008000490886940F004008861886980
:1035C00000F004000490032000909AE7134A904210
:1035D0009CD1886940F400508861886900F40050EB
:1035E0000490886940F0100088618869694600F09D
:1035F0001000049000930A4886E70000002C014068
:103600000010024000080140000C0140000400408E
:103610000000014000080040000C00400034014060
:103620000010014070B590F83E60044690F83F509D
:1036300090F8423090F84320022021B104290ED0A6
:10364000012E1BD114E0012E18D1012B16D184F8C4
:103650003E0084F8420001220021206820E0012D74
:103660000CD1012A0AD184F83F0084F8430014E009
:10367000012D03D1012B01D1012A01D0012070BD00
:1036800084F83E0084F83F0084F8420084F8430048
:1036900001220021206801F07DF801220421206828
:1036A00001F078F82068016841F001010160002014
:1036B00070BD70472DE9F04104460068C668056991
:1036C0004FF00007A90713D5B10711D5F91E016105
:1036D00001202077206880698007204602D0FFF70C
:1036E000E8FF04E000F07EF8204600F07CF8277741
:1036F000680716D5700714D521686FF004000861BB
:10370000022020772068806910F4407F204602D094
:10371000FFF7CFFF04E000F065F8204600F063F803
:103720002777280715D5300713D521686FF00800D3
:103730000861042020772068C0698007204602D0F5
:10374000FFF7B7FF04E000F04DF8204600F04BF81B
:103750002777E80616D5F00614D521686FF010001B
:103760000861082020772068C06910F4407F204657
:1037700002D0FFF79EFF04E000F034F8204600F08E
:1037800032F82777E80708D0F00706D021686FF0F5
:1037900001000861204600F027F8280608D5300609
:1037A00006D521686FF0800008612046FFF75CFDB8
:1037B000680608D5700606D521686FF040000861DC
:1037C000204600F033F8A8060AD5B00608D52168CF
:1037D0006FF0200008612046BDE8F041FFF745BDCD
:1037E000BDE8F0817047704770B500680D498842A8
:1037F00017D1FDF753FE0C4C00252088401C80B2E9
:103800002080142802D3258000F0DAFE6088401C56
:1038100080B26080C82804D36580BDE8704000F0A5
:103820004BBE70BD00100040AE000020704770B568
:10383000040004D094F84100002510B106E00120F6
:1038400070BD84F84050204600F024F8242084F80D
:1038500041002068C16821F40051C160204600F099
:10386000CDFF2068016921F4904101612068416920
:1038700021F02A0141612068C16841F40051C16012
:103880006564202084F8410084F8420065630020CC
:1038900070BD000030B585B00024009401940294FE
:1038A000039400681449884223D11448C16941F443
:1038B0000031C161C16901F400310491816941F0B5
:1038C0000401816180690E4D00F004000490042021
:1038D0000090022001900320039069462846FEF7DD
:1038E00033FC0820CDE90004694628460294FEF71F
:1038F0002BFC05B030BD0000004400400010024029
:10390000000801402DE9F843044690F8410098462C
:1039100016460D46202802D00220BDE8F88385B166
:103920007EB100206064212084F84100FEF716FD7E
:10393000A6848146E684A0682027B0F5805F02D087
:1039400003E00120E9E7206910B12E4600250EE0D2
:1039500000260CE08021204600F0ACFFA8B9C6B1DB
:1039600016F8010B21684860E08C401EE084E08C72
:103970004B464FF00002CDF800800028EAD14FF00E
:103980004001204600F096FF40B184F841700320CA
:10399000C3E735F8020BC0F30800E3E784F8417091
:1039A0000020BAE7FEE701684A69D24352050FD406
:1039B0006FF480624A61002140F8301F2022427378
:1039C0008173026942F004020261017301207047B1
:1039D00000207047F8B50446C06A1E460D461746DB
:1039E000082807D0012805D010F5803F02D0206BB1
:1039F000122804D12068016841F4807101601346E7
:103A000000224FF001112046009600F0DBF840B193
:103A100020680068C00502D54FF4007020640320C0
:103A2000F8BD2069B0F5804F0ED00620216800EA6D
:103A3000D51040F0F000086133463A460B49204665
:103A400000F008F978B902E005F0FE0000E0E8B205
:103A500021680861054933463A46891F204600F02F
:103A6000F9F80028DCD00120F8BD000008000100B2
:103A70002DE9F84F0446006889460B9D0168984679
:103A8000174641F4806101602068016841F480714B
:103A9000016000954FF0011B0022594620460A9B09
:103AA00000F090F84FF4007A40B120680068C0053B
:103AB00001D5C4F840A00320BDE8F88F216809F0C3
:103AC000FE0008612B46284920460A9A00F0C2F8F9
:103AD000F0BB20684169806900902A4620460A9917
:103AE00000F04EF940B1206C04283AD120680168FA
:103AF00041F40071016034E0FEB2B8F1010F09D069
:103B00002168380A08612A4620460A9900F038F9E7
:103B10000028E8D1206806612A4620460A9900F06C
:103B20002FF90028DFD12068016841F4807101601D
:103B300000950022594620460A9B00F043F80028D1
:103B4000B3D1216809F0FF0040F00100086100E0F6
:103B500007E02B46044920460A9A00F07BF800282B
:103B6000AAD00120A8E700000200010070B51646A7
:103B70000D4604461EE02046FFF715FF08B1012060
:103B800070BD681C16D0FEF7E9FB801BA84200D868
:103B900085B920684069C04340070BD5002044F830
:103BA000300F20216173A073216941F02001216150
:103BB0002073E4E720684069C0434007DBD400205D
:103BC00070BD00002DE9F047984617460D460446A3
:103BD000C1F30746DDF820902AE000BFB8F1FF3FAF
:103BE00026D0FEF7BBFBA0EB0901414502D8B8F196
:103BF000000F1DD12068012E16D0806925EA000033
:103C00000004000C12D00020B84211D1002044F86A
:103C1000300F20216173A073216941F020012161DF
:103C200020730120BDE8F0874069E7E70120EBE75A
:103C30002068012E0AD0806925EA00000004000CEB
:103C400006D00020B842C9D00020EBE74069F3E776
:103C50000120F7E72DE9F047984616460D46044641
:103C60004FF000094FF0200AC1F3074723E0206816
:103C70004069C043400515D42068016841F40071D3
:103C8000016021686FF480604861C4F8309084F866
:103C90003DA084F83E90216C41F00401216484F839
:103CA0003C9021E0701C06D0FEF758FBA0EB08000A
:103CB000B04203D816B1012F1FD021E02068012F98
:103CC00015D0806925EA00000004000C18D000BF60
:103CD00044F8309F84F80DA084F80E90216941F0DB
:103CE0002001216184F80C900120BDE8F087406933
:103CF00025EA00000004000CEAD12068406901E0D8
:103D00002068806925EA00000004000CAFD1ECE7D0
:103D10002DE9F041002590460E460446202728E074
:103D20004069C043C0060CD454F8301B6FF010003B
:103D3000486144F810596777A577206A2062257793
:103D400014E0FEF70BFBA0EB0800B04200D886B9E8
:103D500020684069C04340060BD544F8305F677364
:103D6000A573206940F02000206125730120BDE883
:103D7000F08120684169C9434906D1D40020F6E7A3
:103D800070B516460D4604461EE02046FFF70BFEB2
:103D900008B1012070BD681C16D0FEF7DFFA801B49
:103DA000A84200D885B920684069C04300060BD5F9
:103DB000002044F8300F20216173A073216941F085
:103DC000200121612073E4E720684069C0430006B8
:103DD000DBD4002070BD000001490120087070474D
:103DE000AC0000202DE9F04704461646006801F0BB
:103DF0007FFD8046216901F07BFD8146D4E9060103
:103E000001F076FD01F00AFB07460D46404601F041
:103E100005FB0022104B01F019F93A462B4600F041
:103E2000BDFF00F0D9FE3060D4E9060101F060FD6D
:103E300001F0F4FA05460C46484601F0EFFA00227C
:103E4000064B01F003F92A46234600F0A7FF00F0D5
:103E5000C3FE7060BDE8F087000018400000084015
:103E600000B518488BB0164901600421416000215B
:103E70004FF08072C0E9021292110261D2004261D9
:103E80000176012242768176C27601774177FDF78D
:103E9000EBFF08B1FDF786FC28220B496846FCF7CA
:103EA000C1FA69460748FDF7DFFD0648FEF7C8F886
:103EB00048F202410348FDF75DFD0BB000BD000074
:103EC00000640040540100201C5B00082DE9F04F05
:103ED00085B00024454800940194029403948169BC
:103EE00041F010018161816901F010010491816943
:103EF00041F080018161816901F080010491816953
:103F000041F004018161816901F00401049181693A
:103F100041F008018161816901F008010491816922
:103F200041F020018161816901F0200104918169E2
:103F300041F4807181618069DFF8B49000F4807091
:103F40000490002202214846FEF702FADFF8A4A0FE
:103F500001220C215046FEF7FBF9DFF89CB04FF42C
:103F60006057002239465846FEF7F2F94FF40058E0
:103F7000002241462148FEF7EBF902260125CDE952
:103F80000065CDE9024669464846FEF7DDF80C209B
:103F9000CDE9000569465046CDE90245FEF7D4F863
:103FA000402000901648CDE9010469465046FEF7CE
:103FB000CBF800970396CDE9015469465846FEF7C1
:103FC000C3F8CDF800800396CDE9015469460B484B
:103FD000FEF7BAF8002211461720FEF707FD17205A
:103FE000FEF7F6FC05B0BDE8F08F000000100240BF
:103FF000001C01400014014000200140001001405D
:10400000000011100D4810B50B4901600C494160CA
:1040100000214FF480428160C0E903124161816157
:10402000C1610162FEF7A0F9002803D0BDE810408D
:10403000FDF7B8BB10BD0000005400407C0100201B
:10404000801A06000D4810B50B4901600C4941600B
:1040500000214FF480428160C0E903124161816117
:10406000C1610162FEF780F9002803D0BDE810406D
:10407000FDF798BB10BD000000580040D0010020A3
:10408000801A0600104810B50E4901604FF4827185
:10409000416000218160C1604FF400720161C0E99C
:1040A00005121022C0E90721416281620A21C16222
:1040B000FEF73AFF002803D0BDE81040FDF772BBC1
:1040C00010BD0000003800402402002010B58CB064
:1040D00024216846FCF7D8F90024164809941449AD
:1040E0000A94C0E900144FF6FF71C0E9024104616F
:1040F000446184610120CDE90004CDE90204049407
:10410000CDE90540079469460A480894FFF76EF91F
:1041100008B1FDF747FB099409A906480A94FFF77F
:10412000A5F8002801D0FDF73DFB0CB010BD000044
:10413000002C01407C02002010B58CB02421684680
:10414000FCF7A2F90024154809944FF080410A9425
:10415000C0E900144FF6FF71C0E9024104618461B7
:104160000120CDE90004CDE902040494CDE9054025
:104170000794694609480894FFF738F908B1FDF734
:1041800011FB099409A905480A94FFF76FF8002864
:1041900001D0FDF707FB0CB010BD0000C4020020E9
:1041A00010B58CB024216846FCF76EF90024154840
:1041B000099413490A94C0E900144FF6FF71C0E94D
:1041C0000241046184610120CDE90004CDE90204CB
:1041D0000494CDE90540079469460A480894FFF71E
:1041E00005F908B1FDF7DEFA099409A905480A9412
:1041F000FFF73CF8002801D0FDF7D4FA0CB010BD51
:10420000000400400C03002010B58CB02421684647
:10421000FCF73AF900241548099413490A94C0E9B7
:1042200000144FF6FF71C0E902410461846101206E
:10423000CDE90004CDE902040494CDE905400794DA
:1042400069460A480894FFF7D1F808B1FDF7AAFAC1
:10425000099409A905480A94FFF708F8002801D035
:10426000FDF7A0FA0CB010BD000800405403002078
:1042700010B58CB024216846FCF706F900241548D7
:10428000099413490A94C0E900144FF6FF71C0E97C
:104290000241046184610120CDE90004CDE90204FA
:1042A0000494CDE90540079469460A480894FFF74D
:1042B0009DF808B1FDF776FA099409A905480A9412
:1042C000FEF7D4FF002801D0FDF76CFA0CB010BD4A
:1042D000000C00409C0300201CB500240E480094F4
:1042E0000C49019401604721C0E9011440F2F31127
:1042F0008461C160FEF7F8FF08B1FDF753FA00943E
:10430000694605480194FEF7B1FF002801D0FDF78A
:1043100049FA1CBD00100040E403002010B58CB029
:1043200024216846FCF7B0F8002416480994144983
:104330000A94C0E900144FF6FF71C0E9024104611C
:10434000446184610120CDE90004CDE902040494B4
:10435000CDE90540079469460A480894FFF746F8F6
:1043600008B1FDF71FFA099409A906480A94FEF757
:104370007DFF002801D0FDF715FA0CB010BD00003C
:10438000003401402C0400200C4810B50A4901609B
:104390004FF4E1314160002181600C22C160C0E92D
:1043A00004128161C161FFF742FA002803D0BDE821
:1043B0001040FDF7F7B910BD004400407404002020
:1043C000FEE7FEE77047F8B515460E460B4600922D
:1043D00004460122022100F011F840B933460022C0
:1043E00080212046009500F009F8002804D0606D77
:1043F00040F0200060650320F8BD00002DE9F8437F
:104400001E46914688460446089DFDF7A7FF401BBF
:10441000351AFDF7A3FF074625480068C0F3CB30E7
:10442000684338E0701C37D0FDF798FFC01BA842E6
:1044300003D215B1009860B32CE02068416821F0E8
:10444000E00141606068B0F5827F0BD1A068B0F5F3
:10445000004F02D0B0F5806F04D12068016821F0D0
:1044600040010160A06AB0F5005F09D120680168D1
:1044700021F4005101602068016841F4005101609D
:10448000012084F85100002084F850000320BDE88A
:10449000F8830025401E00902068816838EA0100FA
:1044A00004D000214945BDD10020F0E70121F9E702
:1044B000EC000020704700002DE9F0413D4EA6B011
:1044C00003AD002204213046FDF742FFFF2000F03B
:1044D0005DFB0024B714A046002000F057FBB52870
:1044E00004D1002000F052FB622831D0641CA4B239
:1044F000BC42F1D3012204213046FDF729FF20A858
:1045000000900A210224CDE90141012300229021DB
:104510002948FEF783F8002817D118211AA8FBF7BD
:10452000B3FF4FF48A60CDF870801A90CDE91D84F6
:10453000BDF8800001AB010A8DF800108DF8010074
:104540006A461AA91D48FDF727FA26B0BDE8F08192
:104550000024002000F01AFB2855641CE4B25C2CF7
:10456000F7D3012204213046FDF7F2FEDDE909769A
:1045700018211AA8049D0C9CFBF786FFCDF87080CB
:104580000820CDE91D804FF488601A9024AB22AA40
:104590001AA90A48CDE92267FDF7FEF940F2414029
:1045A0001A9024AB22AA1AA90448CDE92245FDF7A6
:1045B000F3F9A4E7001401407C010020540100201D
:1045C000F0B526488DB00178002945D0002505704A
:1045D000234F6E462A4608213846FDF7B9FEAD2026
:1045E00000F0D4FA0024002000F0D0FA3055641C0A
:1045F000E4B20E2CF7D3012208213846FDF7A8FEBD
:10460000182104A8FBF740FF08200695CDE90750C4
:104610004FF486600490DDE90001CDE90A010CAB9E
:104620000AAA04A90F48FDF7B7F940F231400490F7
:1046300002980A90BDF80C00ADF82C009DF80C0013
:104640008DF82E009DF80D008DF82F000CAB0AAAF6
:1046500004A90448FDF7A0F90DB0F0BDAC0000209E
:10466000001401405401002010B5064C012208211D
:104670002046FDF76DFE20460122BDE810400421D2
:10468000FDF766BE00140140FEF74AB930B58FB0A1
:1046900028216846FBF7F8FE14210AA8FBF7F4FE70
:1046A00001210804CDE900100024029402250491A0
:1046B000CDE907504FF4E01009906846FEF7A4FAE0
:1046C00008B172B6FEE70F20CDE90A054FF480600D
:1046D000CDE90C4002210AA80E94FEF7B9F9002892
:1046E00001D072B6FEE70FB030BD70470148FEF74B
:1046F000E1BF0000E4030020F0B50268204C214D2A
:10470000214E224F224B4FF0804CA04209D09842BC
:1047100007D0604505D0A84203D0B04201D0B842CE
:1047200004D122F0700E4A6842EA0E02A04209D07B
:10473000984207D0604505D0A84203D0B04201D0CE
:10474000B84203D122F44075CA682A434D6922F069
:1047500080022A4302608A68C2620A688262A042BA
:1047600001D0984201D109690163012141610169C8
:10477000C90703D0016921F001010161F0BD00000A
:10478000002C01400004004000080040000C0040E4
:104790000034014010B501F01F030121046A994063
:1047A0008C430462016A9A401143016210BD0168A2
:1047B0000C3151E8002F22F4907241E80023002BC5
:1047C000F5D10168143151E8002F22F0010241E8CF
:1047D0000023002BF5D1016B012909D101680C31AF
:1047E00051E8002F22F0100241E80023002BF5D100
:1047F000202180F8421000210163704770B5044603
:1048000000680169E26821F44051114301612169A6
:10481000A0680843616908432168CA6841F20C63D3
:104820009A430243CA6020684169A26921F4407139
:10483000114341611E492068884202D1FEF7AEF95A
:1048400001E0FEF79BF900EBC00101EB001260688C
:1048500064218000B2FBF0F3B3FBF1F36FF01806B4
:104860007343B2FBF0F5B2FBF0F605EB83053223A0
:1048700003EB0515B5FBF1F5B6FBF1F605F0F00518
:1048800005EB0615B2FBF0F6B2FBF0F0B0FBF1F071
:104890006FF01802504306EB800003EB0010B0FBF2
:1048A000F1F0216800F00F002844886070BD00001E
:1048B000003801402DE9F843984617460D46044656
:1048C000089E24E0701C22D0FDF748FDA0EB0800F4
:1048D000B0421AD8CEB12068C168490717D5802DDB
:1048E00015D0402D13D00168C94309070FD40168C2
:1048F0000025406800902046FFF759FF08206064BB
:1049000084F840500120BDE8F8830320FBE72068CD
:10491000006835EA000004D00020B842D2D0002060
:10492000F1E70120F9E700000148FDF79FB9000019
:1049300054010020FEE7490050EAC12018BF0420BE
:104940004A0D18BF40F0010040F2FF72B2EB515F18
:1049500008BF40F00200012808BF05207047090782
:10496000090E002804DB00F1E02080F800147047F5
:1049700000F00F0000F1E02080F8141D704730387F
:104980000A2801D20120704700207047AEB0FDF721
:10499000CFFFFFF77BFEFFF799FAFFF761FAFFF70A
:1049A00051FBFFF7F1FCFFF76DFBFFF78FFBFFF704
:1049B000C3FBFFF7F5FBFFF727FCFFF759FCFFF7F9
:1049C000ADFCFFF71FFBFFF787FCFCF753FDFFF77C
:1049D0004BFE3848FEF7D4FCFCF7BEFE4FF4005106
:1049E0003548FDF7ADFC4FF4FA70FDF78DFB14224E
:1049F00032A128A8FBF716FD28A8FBF7F4FC82B229
:104A00004FF0FF3328A93248FEF77CFF0024322004
:104A1000604300F075FE2F4900F02CFD0746C4EB03
:104A2000041000EB400000F06BFE05462A4900F040
:104A300021FD06462846294900F01CFD0546FCF7E5
:104A40007BFE80462A4631463846FCF779FFFCF764
:104A500073FEA0EB080000F06BFE00F0DFFC204DC1
:104A600082468B46E86800F0D9FC80468946A868F3
:104A700000F0D4FC06460F46686800F0CFFCCDE994
:104A800000010DF1080C631C8CE8C00F15A28021F9
:104A900008A8FBF7CBFB08A8FBF7A5FC82B24FF0F8
:104AA000FF3308A90A48FEF72DFF641C062CAEDB75
:104AB00094E70000E4030020001001405465737483
:104AC0002055415254204F75747075740D0A0000C2
:104AD0007404002000007A4400806D4400006B44A0
:104AE000B40000204A6F696E742025643A204B5050
:104AF0003D252E3266204B493D252E3266204B4403
:104B00003D252E32662054696D653D252E32662086
:104B100075730D0A0000000030B5002291240DE0ED
:104B200010F8013B5A400023D50702D084EA520214
:104B300000E052085B1CDBB2082BF5D3491EC9B25A
:104B4000EED202F07F0030BD3EB50446D1208DF894
:104B5000040001F07F008DF8050002F07F008DF861
:104B60000600C2F3C6108DF80700042101A8FFF764
:104B7000D3FF8DF808000A200090052301AA2146E2
:104B80000148FDF7B5FC3EBDD001002001B582B063
:104B900002200090012301AA02A90348FEF758FA57
:104BA0009DF804000EBD00002402002010B500296D
:104BB0000AD00878002807D005487844FCF74AF85E
:104BC000002801D0002010BD0248784410BD00002C
:104BD000B6120000AE12000021F00042A2F16052B5
:104BE000B2F5801F01F0004328BFD2F17F6C0BD9D2
:104BF0005FEA001C43EAC20242EB507018BF7047E4
:104C000028BF20F001007047B2F5801FBCBF1846D6
:104C100070474FEA410C1CF5001F02D2084600F015
:104C200062BE70B500F0BCFA00000089FFF7F6BF65
:104C30004FF00040A0F580007047000010B591EAE9
:104C4000030F48BF83F0004300F10683841A71EB21
:104C5000030C05D2121943EB0C03001B61EB0C0192
:104C6000DFF824E14FEA1154A4EB135C1EEA430F72
:104C700018BF9EEA445F73D023EA0E03DCF1200ED6
:104C800021EA045143F4801332D322FA0CFE10EBD4
:104C90000E0023FA0CFE41EB0E01CCF1200E03FABC
:104CA0000EFE10EB0E0051F10001B1F5801FCCF1AA
:104CB000200E32D201EB045112FA0EF2BDE8104080
:104CC00058BF7047401C38BF5FEA420218BF7047A8
:104CD000002814BF20F0010041F100014FEA410318
:104CE00013F5001F38BF7047A1F1C04100F0A6BA0C
:104CF000012A43EB0302ACF1200CDCF11F0E32BFA2
:104D00004FF0000E23FA0CF310EB030041EB0451BB
:104D1000B4EB115FD0D0A1EB045101F5801149082B
:104D20005FEA300001EB04510ED350F1000038BFB0
:104D300012FA0EFE08D1BDE81040C9E7401C38BF8A
:104D40005FEA4202CAD1C3E7BDE810404FEA41031F
:104D500013F5001F38BF7047A1F1C04100F06EBAD3
:104D60009EEA445F08D011EA5E0FBDE8104004BF20
:104D700001F0004100207047BDE8104070B500F020
:104D80000FFA00BF64FBBE3E0000E0FF02494FF097
:104D9000000000F024BE00BF0000F87F2DE9C041F4
:104DA00030B4DFF8A0C23CEA111418BF3CEA131477
:104DB00000F0EC8081EA03051CEA111444EAD57482
:104DC00018BF1CEA131500F0C780A4EB05044FF0D0
:104DD000004545EAC12145EAC32341EA505143EA6F
:104DE000525304F17F74994204F500344FEAC02015
:104DF0004FEAC22208BF904200F09C804FEA136540
:104E00000FF24016765D4FEA134506FB05F7C7F132
:104E1000807706FB07F74FEAD737A7FB0368764290
:104E2000C8F58038A7FB06CE38BFA8F1010807FBFC
:104E300008E64FF0000EA6FB028CE6FB03CEDCF189
:104E4000000CCEF1004E38BFAEF1010EA6FB0C589F
:104E50004FF000074FF00005E6FB0E87A1FB08C6E8
:104E6000A0FB07CE16EB0E0645F10005E1FB07653A
:104E700015F1E04E7EBFA4F580345FEA46066D4131
:104E800016F1800745F100054FEA17274FEA06663D
:104E900047EA0567A6F1DE46B6F1805F4FEA1525C1
:104EA0001FD9384624F0010C05EBC471BCF1FE6F2C
:104EB00001EB0C1102D8F0BCBDE8008124425CBFBC
:104EC00001F5801E9EEAC47F02D4F0BCBDE80081DB
:104ED000244238D4F0BCA1F1C041BDE8004100F04B
:104EE000ADB94FEAD22242EA43524FEAD323A7FB9D
:104EF00002864FEAD02040EA415007FB03661EEAD3
:104F00000E0F4FEAD12105FB026658BFA6EB0056F3
:104F1000B6EB00564FEA520E4EEAC37E18EB0E0E69
:104F200056EB530EBDD518EB02085E417F1C55F1C0
:104F30000005B6E74FF480154FF000074FF000066C
:104F40004FF00008ADE7F0BC4FF0000001F1C041A8
:104F500001F00041BDE8008111EA0C1F0CEA1315B5
:104F600000D00CE013EA0C1F00F025804FF0000089
:104F7000F0BC81EA030101F00041BDE80081F0BC12
:104F8000BDE8004181EA030100F058B9F0BCBDE87A
:104F9000004170B500F004F9097EFC3E00F007B84E
:104FA00081EA03014FF0000001F00041704781EAFF
:104FB000030100F043B9F0BCBDE800414FF0000030
:104FC00021497047FFFDFBF9F7F5F4F2F0EEEDEB48
:104FD000E9E8E6E4E3E1E0DEDDDBDAD8D7D5D4D3F7
:104FE000D1D0CFCDCCCBCAC8C7C6C5C4C2C1C0BF43
:104FF000BEBDBCBBBAB9B8B7B6B5B4B3B2B1B0AF49
:10500000AEADACABAAA9A8A8A7A6A5A4A3A3A2A12C
:10501000A09F9F9E9D9C9C9B9A99999897979695E7
:1050200095949393929191908F8F8E8E8D8C8C8B83
:105030008B8A89898888878786858584848383820B
:10504000828181800000FF070000F87FDFF848C1FF
:1050500070B51CEA111E1EBF1CEA13159EEA0C0F48
:1050600095EA0C0F00F06F8081EA030423EA4C13E9
:105070004EEAD47E21EA4C1141F4801143F48013AE
:10508000AE44A1FB024CA0FB0365AEF17F7E361956
:1050900055EB0C05A1FB034C4CF10003A0FB021CDB
:1050A00016EB0C06654153F10003094218BF46F0A8
:1050B000010613F4007F0BD14FEA03314FEA0530AC
:1050C000340341EA155140EA16506FF003020AE03A
:1050D0004FEAC3214FEAC520F40241EA555140EAA4
:1050E00056506FF0020202EB2E4201EB025585EAA8
:1050F000CE710AD05FEA440C18BF24F0004450F18E
:10510000000041F1000120EAD47040F2FE7C6245CB
:1051100000D270BDA84214BF4FF080444FF040440D
:10512000002E08BF0024BEF1806FA8BFA1F1C041CE
:10513000BDE8704080F282804FF0000001F1C04174
:1051400001F0004170479EEA0C0F0CEA131518BFDE
:1051500095EA0C0F06D04FF0000081EA030E0EF026
:10516000004170BD00F01CF88900013E00F007B856
:1051700000F009B84FEA430C5FEA5C5C08D081EAB2
:10518000030100F05BB84FEA410C5FEA5C5CF6D1CA
:105190004FF00000014970470000FF070000F87F52
:1051A0000EF1020E2EF0030E5EF8046B364205D4AB
:1051B000012A43EB030515F5001F12D8012841EB26
:1051C000010C1CF5001F0CD80ED14FEAD17C15F54F
:1051D000001F0CEB4C0C0CF1020C08BF4CEBD37C09
:1051E00004E04FF0080C01E04FEAD37C0CEB4C05D7
:1051F00026FA05F606F00706B6F1040C06D20EEB09
:10520000860CBDE870404CF0010C6047DFE80CF004
:10521000090B02024FF000414FF00000A1F5002100
:1052200070BD19461046012851EB010418BFD4F592
:10523000001484BF002001F0004170BD0808A0F5F3
:1052400000114FEA3101704710B591EA030F48BFD2
:1052500083F000433FF5FAAC841A71EB030C07D2DC
:1052600012198CF0004C43EB0C03001B61EB0C019A
:10527000DFF8A4E14FEA1154A4EB135C1EEA430FDC
:1052800018BF9EEA445F00F0B08023EA6E035242EA
:1052900021EA0451C3EB6E0338BF5B1EDCF1200E24
:1052A00025D322FA0CFE10EB0E0043FA0CFE41EB64
:1052B0000E01CCF1200E03FA0EFE10EB0E0051F1A0
:1052C0000001CCF1200E29D412FA0EF201EB0451A8
:1052D000BDE8104058BF7047401C1CBFB2F1004FE2
:1052E000704700280CBF491C20F00100704712EBEA
:1052F000020E43EB030218BF4FF0010E4EEA4202CA
:10530000ACF1200CDCF11E0E54D943FA0CFE10EB6C
:105310000E0051F1FF31CCF11E0ED5D50EF1010E6C
:1053200012FA0EFE404141EB010101EB445C5FEAE1
:105330005C5C10D910EBDE7001EB045138BFBEF19C
:10534000004FBDE8104018BF704700280CBF491C33
:1053500020F00100704730D24FEAD42C11F5001133
:1053600024F400641BD0B1FA81F20B3AA41AA41EF3
:10537000D2F12003914030FA03F31943904001EB3E
:10538000CC71002C01EB0451BDE81040A8BF704760
:1053900001F1C0414FF0000001F000417047B0FA48
:1053A00080F310FA03F100D110BDE41A173C480550
:1053B000C90AE4E701EB045110BD491001EB0451A7
:1053C000BDE810404FEA300002E04FF000017047A6
:1053D0004A0008BF0042F8D0B2F5001F28BF70474E
:1053E00001F000414FF0000070479EEA445F07D093
:1053F00011EA5E0FBDE8104004BF00210020704795
:10540000BDE8104070B5FFF7CBFE00BF40DFF63EB1
:1054100083F00041104670470000E0FF43004FEA70
:10542000D30C4FEA3C0C43401FBF40070CF16051C6
:1054300013F0FE4F70471CF0006F03D100200CF0FA
:10544000004170470CF0004343EA507010B540EA49
:10545000CC0000F002FA00BF000000924FEA000109
:10546000FFF7ECBE4FF000414FF00000A1F5002126
:105470007047000090EA010F48BF81F0004100F141
:105480003E82421A3CBF801A89184FEAD0524FF030
:105490007F4C1CEA410FA2EBD15318BF9CEA026F6C
:1054A00000F03B804FF0004C4CEA00204CEA012118
:1054B00021FA03FC10EB0C0C1ED202F1FF325FEA62
:1054C0001C2040EBC25038BF70471CF07F0F4FEAE2
:1054D000400C18BFBCF17F4F38BF7047C3F12003A9
:1054E000994008BF20F00100BCF17F4F38BF7047E2
:1054F000A0F1C04000F0F7B94FEA3C00000A40EBD1
:10550000C25028BF1CF0FF0F4FEA400CE6D018BF76
:10551000BCF17F4F38BF7047EAE79CEA026F05D0C5
:1055200010EA5C0F08BF00F00040704710B500F0B3
:1055300094F900BF64FBBE3E014800F050BA00BFC2
:105540000000C07F4FF47F0C1CEAD0121EBF1CEA83
:10555000D11392EA0C0F93EA0C0F00F0858090EAC9
:10556000010F48BF42F4807240F4000C41F4000087
:105570002CF07F4120F07F4000B58142A2EB030276
:105580000FF2081CACEB504EC0F100009EF800E09A
:105590004FEA4E0E00FB0EFC38BF49004FEA2C1CB0
:1055A00002F5FA020CFB0EF34FEACE1E4FEA112C65
:1055B0004FEAC1210EEB635E42EB22420EFB0CFC74
:1055C0004FEA1C5300FB03114FEA112C4FEA013143
:1055D0000EFB0CFC4FEADC4C00FB0C11C14228BF57
:1055E00009184CEB03335DF804EB10EB410143EB7E
:1055F000C250B2F57C0F38BF704729D512F0F00FBA
:105600001CBF00F1C04000F0004070470081828361
:105610008485868788898B8C8D8E8F9192939596C1
:1056200097999A9C9D9FA0A2A3A5A7A8AAACAEB04B
:10563000B2B3B5B7B9BCBEC0C2C5C7C9CCCED1D450
:10564000D7D9DCDFE2E6E9ECF0F3F7FAFE00000080
:105650004FEA400C0CF1807CBCF17E4F28BF7047B4
:10566000B0F1C04000F03FB990EA010F0CEAD1134D
:1056700048BF42F48072624538BF634507D213F4D5
:105680007F0F16D080EA010000F00040704710B58F
:1056900000F0E3F8097EFC3E00F005B880EA010066
:1056A00000F00040704780EA010000F0004000F088
:1056B0001AB912F47F0F04BF0248704780EA010054
:1056C00000F011B90000C07F41000B0ED3F19E0223
:1056D00008D950F400034FEA032323FA02F048BF2D
:1056E0004042704710B500F0B8F800BF49922480DE
:1056F000002070476FF0004282EA200070470000EF
:1057000010F0004148BF4042B0FA80F310FA03F2B3
:10571000C3F19D030BD051EAC35101EB1220530694
:1057200038BF704700F1010008BF20F0010070474A
:10573000B0FA80F310FA03F2C3F19D030AD0D90541
:1057400001EB1220530638BF704700F1010008BF7B
:1057500020F00100704700004FF47F0C1CEAD012CB
:105760001EBF1CEAD11392EA0C0F93EA0C0F00F053
:10577000478090EA010F48BF42F480724FF0004C1E
:105780004CEA00204CEA012102EB0302A0FB0113CA
:10579000A2F50002002918BF43F001035B0028BFF7
:1057A0004FEA330342EB22425FEA132C4CEBC25028
:1057B0002EBFBCEB436FB2F57C0F70474FEA036C12
:1057C000BCF1004F08BF20F00100B2F57C0F38BFDC
:1057D00070470BD582F0FF0212F5803FC8BF7047BB
:1057E00000F1C040D8BF00F00040704700F5000C49
:1057F0005FEA4C0C48BF7047B0F1C04000F073B88E
:1058000090EA010F0CEAD11348BF42F4807262455E
:1058100038BF634504D280EA010000F000407047C1
:1058200010B500F01AF800BF8900013E00F007B87B
:1058300000F009B85FEA410C5FEA1C6C08D080EA0E
:10584000010000F050B85FEA400C5FEA1C6CF6D132
:105850004FF00040A0F5800070470EF1020E2EF0D0
:10586000030E5EF8044B244204D44FEA4102B2F125
:105870007F4F11D84FEA4003B3F17F4F0CD80ED1C0
:105880004FEAD07CB2F17F4F0CEB4C0C0CF1020CC8
:1058900008BF4CEBD17C04E04FF0080C01E04FEA6C
:1058A000D17C0CEB4C0324FA03F404F00704B4F1AC
:1058B000040C06D20EEB840CBDE810404CF0010C39
:1058C0006047DFE80CF0070802024FF00040A0F547
:1058D000800010BD0846420018BFD2F1807288BF18
:1058E00000F0004010BDFF2141EAD050C0057047D4
:1058F00090EA010F48BF81F000413FF5C2AD421A66
:1059000004D882F00042A0EB020011444FEAD052CA
:105910004FF07F4C1CEA410FA2EBD15318BF9CEA19
:10592000026F4AD04FF0004C4CEA00204CEA0121B3
:1059300021FA03FCB0EB0C0C0FD412F0FE0F36D0A2
:105940005FEA4C001DD5001240EBC25038BF7047D3
:105950001CF03F0F18BF70470BE0A2F101025FEA95
:105960001C2040EBC25038BF70471CF07F0F18BF9F
:105970007047C3F12003994014BF401E20F001007E
:10598000704780084FEA122308BF7047B0FA80FCC6
:10599000A2EB0C02CCF1280C60FA0CF093EA122F67
:1059A00004BF00EBC25070474FEAC3707047130A40
:1059B0005FEADC1008BF7047F6E79CEA026F04D08C
:1059C00010EA5C0F08BF0020704710B5FFF745FFD5
:1059D00040DFF63E81F000407047FAF7B1BE0CF0B0
:1059E0000F03092B08BF082000F07F800A2B0BD083
:1059F000082B18BF704708BF1CF0400F0AD04FF0AB
:105A000000004FF0000170471CF0400F18BF4FF02E
:105A1000004070471CF0100F08D020F0704300F0D9
:105A20007F4242EAD3014FEA4370704700F0604082
:105A300021F07F4242EA000201F07F4040EA7270AA
:105A400070474FF0FF0C4CF4E06C1CEA11531CBF84
:105A50009CEA030C9445C2BFDA4201EB0251704745
:105A6000002B0DD0BCF1000F0FD0002A01F0004137
:105A7000A4BF41F0E04141F07F614FF0000070476A
:105A800001F000414FF00000704750EA01334FF041
:105A90009B0C18BF4CF0806C7FF478A970474FF0D6
:105AA000FF0212EAD0521CBF92F0FF038B42C2BF2A
:105AB000D14200EBC1507047002A0AD0002B0BD016
:105AC000002900F00040A4BF40F0FE4040F4000078
:105AD000704700F00040704743024FF00B0C18BFB6
